:020000040800F2
:10000000B80B002081020008850200088702000862
:10001000890200088B0200088D0200080000000021
:100020000000000000000000000000008F02000837
:1000300091020008000000009302000895020008E9
:10004000970200089702000897020008970200082C
:10005000970200089702000897020008970200081C
:10006000970200089702000897020008970200080C
:1000700097020008970200089702000897020008FC
:1000800097020008970200089702000897020008EC
:1000900097020008970200089702000897020008DC
:1000A00097020008970200089702000897020008CC
:1000B000270F0008970200080D1F0008970200088C
:1000C00097020008970200089702000897020008AC
:1000D0009702000843060008B90D000897020008BF
:1000E00097020008970200089702000800F002F843
:1000F00000F0B0F80AA090E8000C82448344AAF112
:100100000107DA4501D100F0A5F8AFF2090EBAE80F
:100110000F0013F0010F18BFFB1A43F0010318473B
:1001200080470000A04700000A444FF0000C10F880
:10013000013B13F0070408BF10F8014B1D1108BF65
:1001400010F8015B641E05D010F8016B641E01F805
:10015000016BF9D113F0080F1EBF10F8014BAD1C55
:100160000C1B09D16D1E58BF01F801CBFAD505E073
:1001700014F8016B01F8016B6D1EF9D59142D6D3CD
:10018000704700000023002400250026103A28BFF5
:1001900078C1FBD8520728BF30C148BF0B607047F9
:1001A0006E2902F0B986702902F04785662904F0AD
:1001B0008C82652904F08982672904F0868261298E
:1001C000AFF3008003681B0A28BF41F08001692952
:1001D00002F0B884642902F0B584752902F0B28473
:1001E0006F2903F0BE81782902F01385E92903F015
:1001F0005981E42903F05681F52903F05381EF2951
:1002000003F0BB81F82902F012850368DB0928BFDF
:1002100041F08001632903F0C880732903F0CD8089
:10022000E32903F04982F32903F04E82002070474E
:100230001FB503F0ADF904000020002103F042FFD8
:10024000401C60600020002103F026FFE0601FBD1D
:1002500010B510BD03F0D2FA1146FFF7E9FF00F028
:1002600071FB03F0F9FA03B4FFF7F2FF03BC00F0EF
:10027000D9F9000030BF72B662B680F308887047C3
:1002800008480047FEE7FEE7FEE7FEE7FEE7FEE779
:10029000FEE7FEE7FEE7FEE703480449044A054B94
:1002A00070470000ED000008B8050020B80B0020E2
:1002B000B8070020B80700204FF0E021096921F0BD
:1002C00004014FF0E0221161C21700EB5272C2F339
:1002D000C702234B1A701946097801EB4102C2EBA1
:1002E000C1114FF6FF7202EAC1011E4A1180704728
:1002F00001461B4A12784A434FF0E0235A6100221C
:100300009A6101221A6100BF4FF0E022106900F0EB
:1003100001021AB100F48032002AF5D000224FF019
:10032000E0231A619A61704701460E4A12884A43D7
:100330004FF0E0235A6100229A6101221A6100BF46
:100340004FF0E022106900F001021AB100F480328F
:10035000002AF5D000224FF0E0231A619A6170471D
:100360000000002002000020A34A0A400243A34BE1
:100370001A6070470146072323EA010212029F4BCD
:100380001B1D18684FF6FF0318409D4B1843104380
:100390009A4B1B1D186070472DE9F04107468846AF
:1003A00014461D462846FFF7E5FFC5F1040007FA8D
:1003B00000F60F20284100EA0800064306F00F0669
:1003C000E21704EBD2625211920002F1E022D2F85D
:1003D00000212146E31704EBD3635B11A4EB431C1C
:1003E000012303FA0CF31A432046E31704EBD3630B
:1003F0005B119B0003F1E023C3F800218148005DFD
:1004000040EA06107F490855BDE8F08170B5044602
:100410000B46CE1701EB9676C6F38700CE1701EB9D
:100420009676B610A1EB8606B606350E764B9B691E
:1004300043F00103744EB3614FEAB63353F82030F2
:100440000F26AE40B343714E46F82030334653F882
:10045000203004FA05F61E436C4B43F820606C4BC9
:100460001B6801268E403343694E336002F001035E
:1004700043B1674B0C331B6801268E403343644EF7
:100480000C36336002F0020343B1614B08331E683F
:1004900001238B401E435E4B08331E6070BD00B5C8
:1004A000002059490861C860142048610020886113
:1004B000C8610846006840F00100086008464068CE
:1004C000544908405049486008460068524908406D
:1004D0004D4908600846006820F4802008600846FE
:1004E000406820F4FE0048600020886000214FF042
:1004F0000060FFF739FF00BD10B5404808300068C4
:1005000040F004003D49083108603F48C06940F0B0
:1005100080503D49C8614148406840F480703F497F
:1005200048600846006840F004000860084600681B
:1005300040F002000860FFF79DFE10BD3048001D2E
:100540002E49091D08607047014649062E4A9269E6
:1005500042F001022C4B9A612C4A083A526822F070
:10056000E0622A4B083B5A601A4652680A435A60B6
:10057000704730B504460025FFF791FF2248006818
:1005800040F480302049086000BF1F480068400CDC
:100590000028FAD04FF480601B494860A01EC4B206
:1005A0000846406840EA844048600846406840F495
:1005B000803048601A48006840F0320018490860EE
:1005C0001148006840F080700F49086000BF0E4875
:1005D0000068400E0028FAD00B48406840F0020046
:1005E0000949486005E008484068C0F3870505F000
:1005F0000305022DF7D130BD80FFFF1F08ED00E09D
:100600000000FA0500E400E000100240080001408C
:10061000000401400000FFF8FFFFF6FE00700040FC
:1006200000200240014600BF704700BF584A1288B0
:1006300002F04002002AF9D0C2B2554B1B1D1A80AD
:1006400070475349098801F0200111B35049091D31
:100650000988C8B24F49098801F40041C9B94D4918
:10066000098801F4804161B10A2803D00021494A78
:10067000118020E04749098841F40041454A118032
:1006800019E00D2806D14349098841F48041414AC7
:10069000118010E03F490988C1F30D013E4A5054D2
:1006A0003C490988491C3B4A118011460988C729E1
:1006B00001DD0021118070472DE9F05F05460E46EF
:1006C000300103F0A3FE8146344905FB01F003F03D
:1006D0009DFE8246494603F09FFD0746384603F0DB
:1006E0005DFE84B2204603F091FE8346394603F056
:1006F0006DFF82464FF0834103F09CFE814603F07C
:100700004DFE80464FF6FF7000EA041404EB08002B
:1007100084B22348806940F004002149886108467A
:10072000806940F4804088611E48006820F47F6042
:100730001C4908600846006840F40B6008601848CF
:10074000C06840F480401649C8600846C06820F47C
:100750008040C8600E4808300480001D008842F2C6
:100760000C0108430A490C3108800846008840F40F
:10077000807008800846008840F02000088002232E
:10078000252203210846FFF707FEBDE8F09F000081
:1007900000380140080000205801002040420F00AE
:1007A0000010024004080140F8B5B649D1F88600AF
:1007B00003F02CFE0746B449384603F02DFD0746EA
:1007C000044603F09BFC0546AE4890F88A002A4692
:1007D0000B46AEA10090B34802F04EF9B149B2A069
:1007E00002F03EF9A749D1F8810003F00FFE074659
:1007F000A549384603F010FD0746044603F07EFC89
:100800000546A04890F885002A460B46A8A100900E
:10081000A44802F031F9A349A3A002F021F99949B3
:10082000D1F8A00003F0DAFD0746A749384603F0E7
:10083000F3FC0746044603F061FC05462A460B46D6
:10084000A2A1984802F018F9964997A002F008F979
:100850008C49B1F8A40003F0D9FD0746A0493846F9
:1008600003F0DAFC0746044603F048FC05462A4636
:100870000B469CA18B4802F0FFF88A498AA002F03F
:10088000EFF8804890F8990003280DDC7D4890F837
:100890009900994951F8202098A1824802F0ECF87B
:1008A000804981A002F0DCF8764890F88C2096A16F
:1008B0007C4802F0E1F87B497BA002F0D1F8714856
:1008C0000078642190FBF1F201FB1204224695A10D
:1008D000744802F0D1F8734973A002F0C1F8694876
:1008E0004078642190FBF1F201FB1204224694A1AE
:1008F0006C4802F0C1F86B496BA002F0B1F8614896
:1009000090F87D0000905F4890F87C30B0F87A2035
:1009100092A1644802F0B0F8624963A002F0A0F826
:10092000584890F880000090564890F87F3090F832
:100930007E2091A15B4802F09FF85A495AA002F02C
:100940008FF8F8BDFF254FF000084FF0000909208F
:10095000FFF70FFE4820FFF7AFFC4FF4E1314820CE
:10096000FFF7AAFE4FF41641242000F06AFA00F0C7
:1009700059F900F071F9874841684820884786A0F6
:1009800002F06EF88AA002F06BF8052000F04FFF2D
:10099000E8B18CA002F064F800BF4FF41651242097
:1009A00000F04FFA032000F0D7FE4FF41641242048
:1009B00000F047FA8A4800F0FBFE0546052000F0EB
:1009C00036FF08B1002DE8D186A002F049F858E0C2
:1009D0000120FFF7A9FC8948008800F4004028B3F3
:1009E00086480088C0F30E06002405E08448005DB8
:1009F00084490855601C84B2B442F7DB00207F496B
:100A0000088080490855B9F1000F0FD1B8F1000FE7
:100A100003D07DA002F024F808E07A49194800F0DC
:100A200039FEFFF7C1FE66A002F01AF8002000F0C0
:100A300057F90546022D07D1B8F1000F01D1012069
:100A400000E0002080460BE0042D09D1B9F1000F31
:100A500001D1012000E0002081466DA002F000F8E5
:100A60004FF4FA7097FBF0F100FB117038B96C4845
:100A7000006808B9012000E0002069490860781C7E
:100A800087B2A5E7E80200200050C3474C6F6E67AD
:100A900069747564653A252E3566202531632020FA
:100AA000200000009003002025730D0A00000000C4
:100AB0004C617469747564653A252E35662025315C
:100AC000632020200000000000002041416C746978
:100AD000747564653A252E31666D20202020200033
:100AE00000007A4453706565643A252E33666B6D59
:100AF0002F682020202020000C000020466978204C
:100B00004D6F64653A2573004750532B424420567D
:100B1000616C696420736174656C6C6974653A25F5
:100B2000303264004750532056697369626C652007
:100B3000736174656C6C6974653A253032640000C9
:100B400042442056697369626C6520736174656CF8
:100B50006C6974653A2530326400000055544320B6
:100B6000446174653A253034642F253032642F2572
:100B700030326420202000005554432054696D65B4
:100B80003A253032643A253032643A2530326420D6
:100B90002020000064000020414C49454E54454B44
:100BA000204E414E4F2053544D33320D0A00000069
:100BB000536B7954726146382D4244205445535446
:100BC0000D0A0000536B7954726146382D4244205F
:100BD000C5E4D6C3D6D02E2E2EA1A20D0A00000049
:100BE000A0860100536B7954726146382D4244202F
:100BF000C9E8D6C3CDEAB3C90D0A00001E00002023
:100C000090040020200200200D0A25730D0A000028
:100C100055534D415254204F4E210D0A0000000003
:100C2000800122420A48806940F01000084988612A
:100C3000084800680020074908600846006840F03E
:100C4000333008600846C06840F0FF00C860704755
:100C500000100240001001404548806940F0040047
:100C6000434988610846806940F010008861084661
:100C7000806940F0200088613E48006820F00F0045
:100C80003C4908600846006840F0080008603A489F
:100C9000406820F0FF00384948600846406840F04E
:100CA000880048600846C06840F48070C860084604
:100CB000C06840F40070C8603048006820F470607C
:100CC0002E4908600846006840F4006008602B4820
:100CD0000C30006840F0040028490C31086070476F
:100CE00010B5044614B10120254908702448007845
:100CF00048B32448006850B12248001D006830B154
:100D00002148006818B12148006801281BD10A2039
:100D1000FFF70AFB00201A4908701A48006808B952
:100D2000012010BD1748001D006808B90220F8E72F
:100D30001548006808B90320F3E714480068012843
:100D400014D10420EDE70F48006801280ED10D48AA
:100D5000001D0068012809D10B480068012805D151
:100D60000A48006810B90120054908700020D8E73A
:100D70000010024000080140001001400014014032
:100D80001C00002020012242088122420001214251
:100D900048B100214FF0804291841146098841F00A
:100DA0000101118007E04FF08041098821F0010125
:100DB0004FF080421180704700B56748008800F00E
:100DC000200000B36448001D0088C3B26348008857
:100DD000C82812DA00204FF0804188845F480088DC
:100DE00010B90120FFF7D4FF5C4801880088401C3F
:100DF0005A4A10805A48435405E05848008840F445
:100E000000405649088000BD70B505460C4655485F
:100E1000C06940F001005349C86188048585048594
:100E2000808940F00100890488810846008840F0EC
:100E30000100088002231C2203210120FFF7ACFAE5
:100E400070BD70B505460C464648806940F0040008
:100E5000444988614448006820F47F404249086062
:100E60000846006840F40B4008603E48C06940F402
:100E700000303C49C8610846006940F40030086110
:100E80000846006920F40030086138486843B0FB28
:100E9000F4F0314908310880081D008842F20C0145
:100EA00008432D490C3108800846008840F48070C2
:100EB00008800846008840F020000880022326228F
:100EC00003211846FFF768FA41F61F416320FFF738
:100ED0009BFF002021490880FFF75AFF70BD0FB427
:100EE00038B505A800902248009A049901F0A6FDA3
:100EF000002000901E4801F081FF85B200240DE023
:100F000000BF1548008800F040000028F9D01848BC
:100F1000005D1149091D0880601C84B2AC42EFDB02
:100F200038BC5DF814FB00B54FF08040008A00F03B
:100F3000010080B10948008840F40040074908805A
:100F40004FF08040008A20F001004FF0804108827D
:100F50000020FFF71DFF00BD004400401E000020E0
:100F600090040020001002400008014040420F00A1
:100F7000C80300200246134610E010782A2805D046
:100F80001078202802DB10787A2801DDFF207047D6
:100F900010782C2801D1481EC1B2521C0029ECD176
:100FA000D01AC0B2F3E710B50246012000E050436A
:100FB0000B1EA1F10104E1B2F9D110BD2DE9F34FEF
:100FC00081B007463C4600200090834681460026BB
:100FD000804628E020782D2802D148F00208641CC1
:100FE00020782C2802D020782A2800D11CE02078F4
:100FF0002E2803D148F00108641C09E02078392824
:1010000002DC2078302803DA4FF0000900260BE0DC
:1010100008F0010010B1701CC6B203E009F1010034
:1010200000F0FF09641CD5E700BF08F0020000B122
:101030007F1C00250EE0A9F10100401BC1B20A206F
:10104000FFF7B1FF795D3039009A00FB0120009075
:10105000681CC5B24D45EEDB052E00DD0526029865
:10106000067000250EE0701E401BC1B20A20FFF77B
:101070009AFF09F101012944795C303900FB01BB79
:10108000681CC5B2B542EEDB31460A20FFF78BFF84
:10109000009901FB00BA08F0020008B1CAF1000A89
:1010A0005046BDE8FE8F2DE9FC5F07468A464FF0AB
:1010B0000008CDF804A0FEA1019801F08DFE0646BF
:1010C000F079303800F0FF0B03213046FFF752FF74
:1010D0000546FF2D04D070196946FFF76FFF387081
:1010E0004FF000096CE0F2A1019801F075FE064690
:1010F00000245CE0042000EB8400C1B23046FFF71E
:1011000039FF0546FF2D09D070196946FFF756FFD4
:10111000C1B208EB8802B81C815400E049E0052008
:1011200000EB8400C1B23046FFF724FF0546FF2DD7
:101130000AD070196946FFF741FFC1B208EB880277
:10114000B81C1044417000E033E0062000EB84003E
:10115000C1B23046FFF70EFF0546FF2D0AD07019C9
:101160006946FFF72BFF81B208EB8802B81C1044D8
:10117000418000E01DE0072000EB8400C1B2304652
:10118000FFF7F8FE0546FF2D0AD070196946FFF7F4
:1011900015FFC1B208EB8802B81C1044017100E0D1
:1011A00007E008F1010000F0FF08601CC4B2042C45
:1011B000A0DB00BF701C019009F1010000F0FF09E5
:1011C000D94590DBBDE8FC9F2DE9FC5F07468A46C8
:1011D0004FF00008CDF804A0B7A1019801F0FCFD84
:1011E0000646F079303800F0FF0B03213046FFF758
:1011F000C1FE0546FF2D04D070196946FFF7DEFEDB
:1012000078704FF0000970E0ABA1019801F0E4FDA7
:101210000646002460E0042000EB8400C1B23046A2
:10122000FFF7A8FE0546FF2D0AD070196946FFF7A3
:10123000C5FEC1B208EB880207F13E00815400E010
:101240004CE0052000EB8400C1B23046FFF792FE6F
:101250000546FF2D0BD070196946FFF7AFFEC1B2EE
:1012600008EB880207F13E001044417000E035E0D1
:10127000062000EB8400C1B23046FFF77BFE054636
:10128000FF2D0BD070196946FFF798FE81B208EB6D
:10129000880207F13E001044418000E01EE0072074
:1012A00000EB8400C1B23046FFF764FE0546FF2D17
:1012B0000BD070196946FFF781FEC1B208EB8802B6
:1012C00007F13E001044017100E007E008F1010061
:1012D00000F0FF08601CC4B2042C9CDB00BF701C33
:1012E000019009F1010000F0FF09D9458CDBBDE850
:1012F000FC9FF8B505460F4671A1384601F06CFD1C
:10130000064606213046FFF735FE0446FF2C05D081
:1013100030196946FFF752FE85F88B0007213046E9
:10132000FFF728FE0446FF2C05D030196946FFF769
:1013300045FE85F88C0009213046FFF71BFE044668
:10134000FF2C05D030196946FFF738FEC5F8A0001C
:10135000F8BD2DE9F843054688465BA1404601F0FB
:101360003BFD064602213046FFF704FE0446FF2CF3
:1013700005D030196946FFF721FE85F8990000274E
:1013800013E0F81CC1B23046FFF7F4FD0446FF2C11
:1013900008D030196946FFF711FEC1B205F18D0082
:1013A000C15500E003E0781CC7B20C2FE9DB00BF99
:1013B0000F213046FFF7DEFD0446FF2C05D0301923
:1013C0006946FFF7FBFDA5F89A0010213046FFF7AC
:1013D000D1FD0446FF2C05D030196946FFF7EEFD1C
:1013E000A5F89C0011213046FFF7C4FD0446FF2CF0
:1013F00005D030196946FFF7E1FDA5F89E00BDE86C
:10140000F8832DE9F04F85B00446884630A1404668
:1014100001F0E2FC074601213846FFF7ABFD054627
:10142000FF2D23D0781904A9FFF7C8FD82469DF847
:1014300010100A20FFF7B7FDBAFBF0F642F2107069
:10144000B6FBF0F0C1B27E2001556420B6FBF0F08F
:101450006421B0FBF1F201FB12017F2001556420F1
:10146000B6FBF0F100FB11618020015503213846E5
:10147000FFF780FD0546FF2D5BD0781904A9FFF723
:101480009DFD06469DF81000801CC1B20A20FFF7A2
:101490008AFDB6FBF0F044F8810F9DF81000801C27
:1014A000C1B20A20FFF77FFDB6FBF0F114E00000A7
:1014B00024475047535600002442444753560000E7
:1014C00024474E474741000024474E475341000000
:1014D000474E524D4300000000FB116A504602F097
:1014E00095FF81469DF81000C0F10500C1B20A20A9
:1014F000FFF759FD009002F089FF8346494602F04C
:1015000099FF8246D94902F087FE052102900A2000
:10151000FFF749FD216800FB01FA504602F076FF13
:101520000190029902F016FE039002F037FF44F892
:10153000810904213846FFF71DFD0546FF2D02D025
:10154000785D84F8850005213846FFF713FD0546D0
:10155000FF2D45D0781904A9FFF730FD06469DF808
:101560001000801CC1B20A20FFF71DFDB6FBF0F091
:1015700044F8860F9DF81000801CC1B20A20FFF7C6
:1015800012FDB6FBF0F100FB116A504602F03EFF7F
:1015900081469DF81000C0F10500C1B20A20FFF796
:1015A00002FD009002F032FF8346494602F042FFFE
:1015B0008246AE4902F030FE052102900A20FFF774
:1015C000F2FC216800FB01FA504602F01FFF019077
:1015D000029902F0BFFD039002F0E0FE44F8860994
:1015E00006213846FFF7C6FC0546FF2D02D0785D80
:1015F00084F88A0009213846FFF7BCFC0546FF2D18
:101600001ED0781904A9FFF7D9FC064642F21070E3
:10161000B6FBF0F0C1B27D2001556420B6FBF0F0BE
:101620006421B0FBF1F201FB12017C200155642022
:10163000B6FBF0F100FB116000F5FA60A4F87A0047
:1016400005B0BDE8F08FF8B504460D4688A12846E0
:1016500001F0C2FB064607213046FFF78BFC074628
:10166000FF2F16D0F0196946FFF7A8FCA4F8A400D4
:101670009DF8000003280CDA9DF80000C0F103007B
:10168000C1B20A20FFF78FFCB4F8A4104843A4F8B5
:10169000A400F8BD70B504460D4629462046FFF764
:1016A00002FD29462046FFF78FFD29462046FFF719
:1016B00020FE29462046FFF74CFE29462046FFF72C
:1016C000A0FE29462046FFF7BEFF70BD70B500257D
:1016D000002604E0681C85B20520FEF725FE66485A
:1016E000008800F4004008B9642DF3DB642D19DA9A
:1016F00061480088C0F30E0500240CE05F48005DDF
:10170000832800D109E05D48005D842801D10326CB
:1017100003E0601C84B2AC42F0DB00BFAC4202D1FB
:10172000022600E00126002053490880304670BDA3
:1017300010B5024600200CE000BF514B1B8803F09F
:101740004003002BF9D0135C4D4C241D2380431C17
:1017500098B28842F0DB10BD70B50546494C4AF29C
:10176000A01020804FF48060608005202071002050
:101770006071A5710120E071207961794840A179FB
:101780004840E1794840207240F60D20A4F8090055
:101790000B212046FFF7CCFFC820FEF7C5FD3A48D5
:1017A00050F825102420FFF74CFBFFF78FFF70BD8A
:1017B00070B505462E46334C4FF47F4000EA1520A5
:1017C00040EA15604FF47F0101EA052108434FF01C
:1017D0007F4101EA056140EA01064AF2A01020803B
:1017E0004FF4E06060806520207101206071C4F8D2
:1017F0000660A072207961794840D4F8061080EA2A
:101800001160C1F307414840E188C1F30721484016
:10181000A1794840A17A4840E07240F60D20A081AD
:101820000E212046FFF784FFFFF750FF70BD70B513
:101830000546144C4AF2A01020804FF4407060809E
:101840000E20207165710120A071207961794840D6
:10185000A1794840E07140F60D2020810A21204600
:10186000FFF766FFFFF732FF70BD00000000704217
:1018700024474E56544700001E00002090040020CC
:1018800000440040C8030020D046000810B58CB0CA
:1018900004461E230BAA03A9204600F0CBFE0090AD
:1018A000009810B101200CB010BD9DF82C0004442C
:1018B00000200B900EE040489DF82C2050F822109C
:1018C00003A800F001FE00B908E09DF82C00401CC0
:1018D000C0B20B909DF82C000728ECD300BF9DF8F8
:1018E0002C00072863D2DFE800F004053C5E656445
:1018F000630000BF31A001F0B3F831A001F0B0F8EF
:101900003FA001F0ADF84EA001F0AAF85CA001F0F4
:10191000A7F86BA001F0A4F879A001F0A1F887A0C6
:1019200001F09EF88CA001F09BF894A001F098F8CB
:1019300098A001F095F89DA001F092F8A2A001F006
:101940008FF8A8A001F08CF8B4A001F089F8C1A02C
:1019500001F086F8CCA001F083F8D8A001F080F85F
:10196000A2E216A001F07CF8E4A001F079F80020D2
:101970000B900EE0F14800689DF82C2000EBC200AF
:101980004168EFA001F06CF89DF82C00401CC0B23B
:101990000B90EA48007D9DF82C108842EADC07A0F5
:1019A00001F05EF880E205A001F05AF8CCE179E29E
:1019B0004DE221E2F4E10000200000200D0A0000C9
:1019C0002D2D2D2D2D2D2D2D2D2D2D2D2D2D2D2D47
:1019D0002D2D2D2D2D2D2D2D55534D41525420564D
:1019E000332E322D2D2D2D2D2D2D2D2D2D2D2D2D1B
:1019F0002D2D2D2D2D2D2D2D2D2D2D200D0A0000C1
:101A00002020202055534D415254CAC7D3C9414CC0
:101A100049454E54454BBFAAB7A2B5C4D2BBB8F690
:101A2000C1E9C7C9B5C4B4AEBFDAB5F7CAD4BBA55E
:101A3000BDBBD7E9BCFE2CCDA8B9FD200D0A000026
:101A4000CBFC2CC4E3BFC9D2D4CDA8B9FDB4AEBF82
:101A5000DAD6FACAD6B5F7D3C3B3CCD0F2C0EFC347
:101A6000E6B5C4C8CEBACEBAAFCAFD2CB2A2D6B4BF
:101A7000D0D02ED2F2B4CB2CC4E3BFC90D0A0000E3
:101A8000D2D4CBE6D2E2B8FCB8C4BAAFCAFDB5C472
:101A9000CAE4C8EBB2CECAFD28D6A7B3D6CAFDD7D2
:101AA000D62831302F3136BDF8D6C62CD6A7B3D6BE
:101AB000B8BACAFD29A1A2D7D6B7FBB4AE0D0A00A9
:101AC000A1A2BAAFCAFDC8EBBFDAB5D8D6B7B5C8C0
:101AD000D7F7CEAAB2CECAFD292CB5A5B8F6BAAFB3
:101AE000CAFDD7EEB6E0D6A7B3D63130B8F6CAE411
:101AF000C8EBB2CECAFD2CB2A2D6A7B3D60D0A004F
:101B0000BAAFCAFDB7B5BBD8D6B5CFD4CABE2ED6EC
:101B1000A7B3D6B2CECAFDCFD4CABEBDF8D6C6C909
:101B2000E8D6C3B9A6C4DC2CD6A7B3D6BDF8D6C6B2
:101B3000D7AABBBBB9A6C4DC2E0D0A00BCBCCAF533
:101B4000D6A7B3D63A7777772E6F70656E656476D1
:101B50002E636F6D0D0A000055534D415254D3D082
:101B600037B8F6CFB5CDB3C3FCC1EE28B1D8D0EBB2
:101B7000D0A1D0B4293A0D0A000000003F3A20203D
:101B800020202020BBF1C8A1B0EFD6FAD0C5CFA24B
:101B90000D0A000068656C703A202020BBF1C8A1D6
:101BA000B0EFD6FAD0C5CFA20D0A00006C697374ED
:101BB0003A202020BFC9D3C3B5C4BAAFCAFDC1D033
:101BC000B1ED0D0A0A00000069643A2020202020AF
:101BD000BFC9D3C3BAAFCAFDB5C44944C1D0B1ED82
:101BE0000D0A0A006865783A20202020B2CECAFD8E
:101BF0003136BDF8D6C6CFD4CABE2CBAF3B8FABFB8
:101C0000D5B8F12BCAFDD7D6BCB4D6B4D0D0BDF868
:101C1000D6C6D7AABBBB0D0A0A0000006465633AAA
:101C200020202020B2CECAFD3130BDF8D6C6CFD498
:101C3000CABE2CBAF3B8FABFD5B8F12BCAFDD7D6B5
:101C4000BCB4D6B4D0D0BDF8D6C6D7AABBBB0D0A9B
:101C50000A00000072756E74696D653A312CBFAA76
:101C6000C6F4BAAFCAFDD4CBD0D0BCC6CAB13B30E3
:101C70002CB9D8B1D5BAAFCAFDD4CBD0D0BCC6CA66
:101C8000B13B0D0A0A000000C7EBB0B4D5D5B3CC08
:101C9000D0F2B1E0D0B4B8F1CABDCAE4C8EBBAAF73
:101CA000CAFDC3FBBCB0B2CECAFDB2A2D2D4BBD86F
:101CB000B3B5BCFCBDE1CAF82E0D0A002D2D2D2DAB
:101CC0002D2D2D2D2D2D2D2D2D2D2D2D2D2D2D2D44
:101CD0002D2D2D2D2D2D414C49454E54454B2D2D4F
:101CE0002D2D2D2D2D2D2D2D2D2D2D2D2D2D2D2D24
:101CF0002D2D2D2D2D2D2D200D0A00002D2D2D2DBE
:101D00002D2D2D2D2D2D2D2D2D2D2D2D2D2D2D2D03
:101D10002D2D2D2D2DBAAFCAFDC7E5B5A52D2D2D25
:101D20002D2D2D2D2D2D2D2D2D2D2D2D2D2D2D2DE3
:101D30002D2D2D2D2D2D2D2D200D0A006400002080
:101D400025730D0A00000000EBA000F089FE0020C2
:101D50000B901AE0F84909689DF82C2001EBC201AC
:101D600001AB02AA486803A900F08AFCF2480068A7
:101D70009DF82C1050F8312003A9F0A000F070FE5F
:101D80009DF82C00401CC0B20B90EB48007D9DF8E4
:101D90002C108842DEDCAFF2DC3000F061FE83E024
:101DA000AFF2E83000F05CFE0BAA03A9204600F079
:101DB00043FD9DF82C00C8B9694603A800F0B7FBA5
:101DC0000B909DF82C0020B9E1A0009900F048FE8E
:101DD0000EE09DF82C00042801D0022063E5DFA06E
:101DE00000F03EFE0120D449C87501E002205AE50A
:101DF000D9A000F035FE57E0D7A000F031FE0BAAC5
:101E000003A9204600F018FD9DF82C00C8B96946CA
:101E100003A800F08CFB0B909DF82C0020B9D4A0F7
:101E2000009900F01DFE0EE09DF82C00042801D062
:101E3000022038E5D1A000F013FE0020BE49C8758D
:101E400001E002202FE5C4A000F00AFE2CE0C2A0B1
:101E500000F006FE0BAA03A9204600F0EDFC9DF859
:101E60002C00C8B9694603A800F061FB0B909DF8EF
:101E70002C0078B9B049009881F8EC00084690F839
:101E8000EC0018B1C2A000F0EBFD07E0C7A000F025
:101E9000E7FD03E0022006E5022004E5AEA000F025
:101EA000DFFD01E00120FEE400BF0020FBE4C648A6
:101EB000008820F00100C44908804FF6FF70C24935
:101EC0001C3108800020C049143108809A49C1F8AB
:101ED000F0007047BC48008800F0010040B196480F
:101EE000D0F8F0004FF6FF7108449349C1F8F000B4
:101EF0009148D0F8F000B4491431098808448E495B
:101F0000C1F8F0000846D0F8F000704710B5AE48B0
:101F1000008800F0010058B1874908698047002017
:101F2000A949143108804FF47A70A7491C31088000
:101F3000A548008820F00100A349088010BD70B5B5
:101F400005460C46A148C06940F004009F49C8619D
:101F50009D481C300580001F04809B48001F00889E
:101F600040F001009849091F088097481038008800
:101F700040F0010094491039088002231E220321F9
:101F80000846FEF709FA70BD10B5044604EBC4001C
:101F900000EB04100122C2EB800081B24FF47A7092
:101FA000FFF7CDFF01206449C87510BD30B595B06D
:101FB000054613AB12AA09A9284600F061FB0446A6
:101FC00014B1204615B030BD0020149026E05A49C7
:101FD00009689DF8502001EBC20113AB11AA4868B3
:101FE00001A900F04DFB04460CB12046EAE709A91F
:101FF00001A800F069FA60B99DF844009DF8481006
:10200000884201DD0220DDE79DF850004A498875CD
:102010000AE09DF85000401CC0B214904648007D74
:102020009DF850108842D2DC00BF4348007D9DF8E7
:102030005010884201D10420C4E714A9284600F0BA
:1020400072FC04460CB12046BCE79DF850003A49AA
:1020500048750020B6E72DE9F0419AB03648847DF6
:10206000007DA04202DC1AB0BDE8F0813249096867
:1020700001EBC40106AB07AA486808A900F000FB01
:1020800008A953A000F0ECFC0026BBE02A48008B16
:102090000121B1400840D8B122214FA000F0E0FC5E
:1020A000304600F033FC24492431471839464BA010
:1020B00000F0D6FC222148A000F0D2FC304600F00F
:1020C00025FC1D492431084410A941F826008FE061
:1020D000304600F01BFC18492431085810A941F87B
:1020E00026001548C07D30B910A850F826103CA035
:1020F00000F0B6FC7CE075E02D2D2D2D2D2D2D2D25
:102100002D2D2D2D2D2D2D2D2D2D2D2D2D2D2D2DFF
:102110002DBAAFCAFD204944202D2D2D2D2D2D2D5A
:102120002D2D2D2D2D2D2D2D2D2D2D2D2D2D2D2DDF
:102130002D2D2D2D200D0A0064000020257320690F
:10214000642069733A0D0A3058253038580D0A005A
:102150004845583A305825580D0A00003136BDF828
:10216000D6C6B2CECAFDCFD4CABE210D0A00000029
:102170004445433A256C750D0A0000003130BDF826
:10218000D6C6B2CECAFDCFD4CABE210D0A00000009
:1021900052756E2054696D652043616C63756C6186
:1021A00074696F6E204F4E0D0A00000052756E204C
:1021B00054696D652043616C63756C6174696F6E01
:1021C000204F46460D0A0000100800400010024053
:1021D0000D0A257328000000256300002573000008
:1021E000256C640010A850F8261095A000F038FC6B
:1021F0009DF81C00401EB04202D093A000F030FCBD
:10220000701CC6B29DF81C008642FFF63FAF8FA03F
:1022100000F026FCFFF74BFE8D48407D0B280DD2C9
:10222000DFE800F0060D151E27323F4E5F72870073
:102230008749096851F834008047054690E0844A90
:10224000126852F8341010988847054688E0804B91
:102250001B6853F83420DDE91001904705467FE004
:102260007B4F3F6857F8343010A807C89847054699
:1022700076E0DFF8DCC1DCF800C05CF8347010A850
:102280000FC8B84705466BE01498DFF8C4C100904A
:10229000DCF800C05CF8347010A80FC8B8470546D9
:1022A0005EE0DDE91401DFF8A8C1CDE90001DCF84A
:1022B00000C05CF8347010A80FC8B84705464FE05E
:1022C000DDE914121698DFF888C1CDE900120290FA
:1022D000DCF800C05CF8347010A80FC8B847054699
:1022E0003EE0DDE91423DDE91610DFF864C1CDE935
:1022F0000023CDE90210DCF800C05CF8347010A8AF
:102300000FC8B84705462BE0DDE91523DDE91710B6
:10231000CDE90123CDE903101498DFF834C1009012
:10232000DCF800C05CF8347010A80FC8B847054648
:1023300016E0DDE91623DDE91810CDE90223CDE929
:102340000410DDE91401DFF808C1CDE90001DCF873
:1023500000C05CF8347010A80FC8B847054600BF2D
:1023600000BFFFF7B7FD9DF8180001280CD13848D1
:10237000C07D20B9294637A000F072FB07E029464E
:1023800036A000F06DFB02E033A000F069FB30489E
:1023900090F8EC0088B12E48D0F8F0000A21B0FB8C
:1023A000F1F201FB12072A48D0F8F000B0FBF1F877
:1023B0003A4641462CA000F053FB00BF53E670B5EF
:1023C0003148008800F40040002833D02E480578BA
:1023D00000202E4948551E4881682C4888470446ED
:1023E0001CB91B49C868804721E02848FFF74EFA0E
:1023F0000546012D00D02C46CCB1012C06D0022C74
:1024000008D0032C0AD0042C10D10BE020A000F03F
:1024100027FB0BE021A000F023FB07E022A000F047
:102420001FFB03E023A000F01BFB00BF00BF002048
:102430001549088070BD0146086870470160704703
:1024400030582558000000002C0000002900000032
:10245000640000203D256C753B0D0A003D30582579
:10246000583B0D0A0000000046756E6374696F6E7C
:102470002052756E2054696D653A25642E253164AD
:102480006D730D0A000000000800002058010020B4
:10249000BAAFCAFDB4EDCEF3210D0A00B2CECAFD2B
:1024A000B4EDCEF3210D0A00B2CECAFDCCABB6E03E
:1024B000210D0A00CEB4D5D2B5BDC6A5C5E4B5C4BC
:1024C000BAAFCAFD210D0A0002460AE010780B7867
:1024D000984201D001207047107800B902E0521CE8
:1024E000491CF3E700BF0020F5E706E002780A7018
:1024F000027802B902E0401C491CF7E700BF7047B0
:102500000146002005E00A7802B903E0421CD0B27F
:10251000491CF8E700BF704710B50246012000E0F3
:1025200050430B1EA1F10104E1B2F9D110BD2DE918
:10253000F04F05460F4600264FF00A09B3462C46D9
:102540000020386034E02078392802DC20783028F8
:1025500011DA28782D2802D028782B2800D156B1FE
:102560002078462802DC2078412804DA2078582890
:1025700017D1012E15D12078412801DB4FF0100929
:1025800028782D2803D14FF0020B6D1C0FE028781E
:102590002B2803D14FF0010B6D1C08E0701CC6B254
:1025A00005E0207800B904E00120BDE8F08F641C4C
:1025B000C9E700BF2C46B9F1100F0FD1032E01DA85
:1025C0000220F2E72078302806D16078582803D11D
:1025D000A41CB01EC6B204E00320E6E70EB9042036
:1025E000E3E71BE00EB1701EC6B22078392806DC86
:1025F0002078302803DB2078A0F1300A02E0207830
:10260000A0F1370A31464846FFF786FF39680AFBD2
:1026100000103860641C207800B900E0E2E700BFD9
:10262000BBF1020F04D13868C0F10008C7F8008080
:102630000020BAE710B50446002010700BE02078A7
:102640000870641C491C1078401C10701078984267
:1026500001DB012010BD2078202802D0207800283E
:10266000EDD10020087000BFF4E70146491C00E0EE
:10267000491C0878202801D10029F9D10878704731
:102680002DE9FF4F85B08046894600270020049041
:102690000390012002904FF0000B002544461DE0FE
:1026A0002078202816D005F07F00052812DA0DB911
:1026B00045F0800505F07F00042803D120782A2802
:1026C00000D00EE0207805F07F010DF80100681CB5
:1026D000C5B202E0852D00D103E0641C20780028FB
:1026E000DED100BF8DB1002005F07F010DF80100A3
:1026F000CEA16846FFF7E8FE18B9002108980170DE
:1027000002E001210898017000254FF0000A4446BC
:1027100014E0641C0AF1010000F0FF0A2078202870
:1027200002D020782A2809D12046FFF79EFF0646CE
:10273000282E03D02A2E01D0CDF810A020782828EA
:1027400002D020780028E4D14446049810B10498BF
:10275000401C04444FF0000A002654E0207810B9D1
:102760004FF0010A50E02078282803D116B9781CD0
:10277000C7B213E02078292808D13EB917B1781ED6
:10278000C7B201E04FF0010A47B93DE020782228A6
:1027900004D10EB9012000E00020064647B9207898
:1027A00020282FD0207889F8000009F1010929E0BC
:1027B00020782C2804D101200290681CC5B214E0B6
:1027C0002078202811D0207828280ED04DB9BBF1D0
:1027D000050F06DA20780DF80B000BF1010000F070
:1027E000FF0B0298401CC0B20290012F0AD1029840
:1027F000022807D10298401CC0B202900398401CE6
:10280000C0B20390641CA9E700BF0398012809D156
:1028100000200DF80B0085A16846FFF755FE08B9AA
:1028200000200390079903980870002089F80000A1
:10283000504609B0BDE8F08FF0B5034615460020BC
:102840000022002600245BE01F782C2F01D104B960
:1028500001221F78292F01D01F780FB904B950E049
:10286000002E3AD11F78302F02DB1F78392F17DD69
:102870001F782D2F14D01F782B2F11D01F78612F88
:1028800002DB1F78662F0BDD1F78412F02DB1F78DC
:10289000462F05DD1F78582F02D01F78782F0CD1D6
:1028A00002B12EE01F78612F03DB1F78203F0F70ED
:1028B00001E01F780F70491C1FE01F78222F04D100
:1028C00002B11EE00126012417E01F78202F14D04A
:1028D0001F782C2F11D0FF2613E01F78222F00D154
:1028E000002402B10DE044B11F785C2F02D15B1CC3
:1028F000471CF8B21F780F70491C471CF8B25B1CCC
:10290000A2E700BF00270F702E70F0BD0246002026
:10291000002105E0474B5B5C0344D8B24B1CD9B2A5
:102920009142F7DB70472DE9F043B5B005460F46FD
:102930000024002604E000213E488155701CC6B2E8
:102940000A2EF8DB06E06D1C287818B9012035B096
:10295000BDE8F08328782828F5D16D1C61E034AA01
:1029600069462846FFF768FF064635449DF8D000C3
:1029700020B1012827D0FF284CD149E09DF8000064
:1029800000B333A96846FFF7D2FD06460EB1022018
:10299000DDE72046FFF7BAFF26490A31339A0A508D
:1029A000A1F12400008B0121A140884321491A395B
:1029B000088304211F480155601CC4B20A2C01DDA4
:1029C0000320C4E726E06846FFF79AFD401C00F0AC
:1029D000FF082046FFF79AFF16490A3100EB01096C
:1029E00049466846FFF781FD12481A38018B0120DD
:1029F000A040014388B20F491A3908830D4800F8F6
:102A00000480601CC4B20A2C01DD03209FE701E0B2
:102A100002209CE700BF2878292801D0287800B937
:102A200000E09CE700BF3C70002090E7766F69648F
:102A3000000000007E000020704700001CB50C461E
:102A4000064B7B4469460090204600F08CFC04460F
:102A50000020694600F09AFC20461CBD4709000092
:102A60000FB4044910B503AA029800F0ABFC10BCE7
:102A70005DF814FB040000200FB41CB5084B06AA37
:102A80007B4469460090059800F06DFC04460020E8
:102A9000694600F07BFC20461CBC5DF814FB00007E
:102AA0000909000070B5044685690068C10601D5B2
:102AB000302600E02026C00707D070BDD4E90121F0
:102AC00030469047206A401C20626D1EF6D570BDCE
:102AD00070B5044685690078C00707D170BDD4E998
:102AE000012120209047206A401C20626D1EF6D5EF
:102AF00070BD70B50C460546012A05D028788006C1
:102B000000D5EA69002302E0012305E05B1C934243
:102B100002D2E05C0028F9D1A869E618C01AA861C1
:102B2000286A184428622846FFF7BCFF04E0D5E96C
:102B3000012114F8010B9047B442F8D32846FFF75F
:102B4000C7FF70BD2DE9F0410646002410687529C5
:102B5000314616A510D000F074F9002802DA404280
:102B600013A507E031688A0701D512A502E04907DD
:102B700004D511A5012401E000F06CF900210A221E
:102B800006F1240709E0B0FBF2FCB0FBF2F302FB14
:102B90001C00303078541846491C0028F3D12346D5
:102BA0002A463046BDE8F04100F05DB90000000063
:102BB0002D0000002B00000020000000F0B40D46A6
:102BC0000188090502D5214C7C4402E01F4C7C445D
:102BD0000E34002100F1240608E002F00F0712096C
:102BE000E75D42EA03721B097754491C52EA030766
:102BF000F3D102780023120704D5702D06D009B155
:102C0000022311342246F0BC00F02DB90123103408
:102C1000F8E770B504460D462146106800F01AF931
:102C2000024629462046BDE870400023C6E7D21D73
:102C300022F00703D3E90023C0E70368126843F0DA
:102C4000200303600823C3610023B7E7281B0000AB
:102C50002DE9F05F894604464FF0000ADFF874B1B1
:102C6000FB44C0F820A02046E1688847002874D0C3
:102C7000252806D0D4E901219047206A401C206213
:102C8000F1E700265F462046E16888472028054690
:102C900007DB312D05D2781910F8200C08B1064356
:102CA000F1E7B00701D526F00406C4F81CA0002700
:102CB000C4F818A02A2D09D0284601F0E6F938B347
:102CC00004EB8708303DC8F8185019E059F8041B88
:102CD000204604EB87029161E1688847012F054691
:102CE00018D1E069002820DA26F020061DE0D8F887
:102CF000180000EB800005EB40003038C8F81800E1
:102D00002046E1688847054601F0BFF90028EED16A
:102D1000012F0AD02E2D08D12046E16888477F1C5C
:102D20000546022F46F02006C4DBA069002803DA1E
:102D3000404246F00106A061F00701D026F01006DF
:102D40006C2D0BD0682D09D04C2D39D06A2D35D083
:102D5000742D35D07A2D33D016E038E0E1682F4657
:102D600020468847B842054609D16C2F26D04FF43B
:102D70008060E168064320468847054604E06C2FE2
:102D80001AD04FF4807006430DB3A5F14100192805
:102D900002D8203546F400664A4629462046266079
:102DA0004E46FDF7FDF980B101280BD0F61D26F047
:102DB000070000F1080956E74020E4E78020D8E743
:102DC0000020D6E706F104094DE7284652E7206ABD
:102DD000BDE8F09FB81A000030B505460B462A46FC
:102DE00013F8014B12F8010B08B1A042F8D01CB146
:102DF000002802D06D1CF1E7284630BD10B5431CF9
:102E000002E010F8011B71B18107FAD14FF00132D5
:102E100002C88C1A8C4314EAC211F9D0C01A0A06EF
:102E200003D0C01E10BDC01A10BD0A0401D0801E00
:102E300010BD0902FCD0401E10BD7047704770479E
:102E4000704709684A0501D540B27047C905FCD5ED
:102E500000B2704709684A0501D5C0B27047C9057C
:102E6000FCD580B270472DE9F0470D469946924651
:102E7000044600F124080168880604D5E06921F0C1
:102E80001001216000E00120A84201DD471B00E0A5
:102E90000027A1697A1902EB0900081AA0612078BD
:102EA000C00602D42046FFF7FDFD002608E0D4E965
:102EB00001211AF806009047206A401C761C206207
:102EC0004E45F4DB2078C0060AD52046FFF7EAFD20
:102ED00006E0D4E9012130209047206A401C20629E
:102EE000381EA7F10107F4DC07E0D4E9012118F846
:102EF00005009047206A401C2062281EA5F10105AC
:102F0000F3DC2046FFF7E4FD2078000602D502201E
:102F1000BDE8F0870120FBE711680268006A5305ED
:102F200001D508700AE0D30501D5088006E0130634
:102F300003D5C217C1E9000200E008600120704714
:102F400070472DE9FF4F0C461E464FF0FF378BB000
:102F5000D2E90001DDF860800A908A46C1F30A5583
:102F600005B93D46002108464FF00000BAF1000FB8
:102F700000F4400005DA00EB80004FF4400101EA64
:102F800050004FEA9059B9F1010F00DDB9460A9897
:102F900050EA4A000ED044F61050A5F2FF354543E2
:102FA0002F14B8F1000F1ED07542291E1EDDC9F185
:102FB00000021CE0B8F1010F4FF0000001D03021F9
:102FC00003E0F24305E02154401CB042FBDB3046F5
:102FD0000022002121540B99C1F80880C1E900208A
:102FE0000FB0BDE8F08FBD1B6D1CDEE74A4600DA6E
:102FF000694206A800F06CFB06AB93E8070003AB40
:1030000083E8070050460A9900F070FC8DE807003D
:10301000A0F500501F3800900398002D09DD42F202
:103020001F014A46084403A90390684600F0CFFEFA
:1030300008E0A0F500504A461F3803A903906846EF
:1030400000F0D9FE8DE807000004000C03D04FF01B
:10305000FF30410800E01046B8F1000F03D0002215
:10306000009215461EE0751E05D400F095FA303228
:1030700062556D1EF9D5B3460122084302D00022E5
:103080007F1C04E02078302801D100227F1E002A16
:10309000099786D01DE0112D07DA00F07DFA303255
:1030A00062556D1C50EA0102F5D1084302D0009828
:1030B000C8B10EE00021681E05E0235C625C635429
:1030C0002254401E491C8142F7DBAB46A81B401E20
:1030D0000990002004F80B000B98099AC0F80880AA
:1030E000C0E9002B7CE711264FF0000859E72DE9D5
:1030F000F04F88460446D21D22F0070191B0D1E975
:103100000001CDE90A0100F0ACFF02460B98C00FA8
:1031100001D02D2007E02068810701D52B2002E097
:10312000202101EAC000032A099001D0072A05DB0B
:1031300003464146204600F075FA0BE120788006F0
:1031400001D5E06900E00620B8F1650F814606D0A0
:10315000B8F1660F18D0B8F1670F70D131E00020D8
:10316000B9F1110F009001DB112301E009F1010316
:103170000AAA01A90CA8FFF7E4FEDDE90C700026FD
:1031800009F10105834647E001204B4600904FF0CE
:1031900000470AAA01A90CA8FFF7D3FEDDE90DB08C
:1031A0000C995D46002610B909F101000D18B9EB24
:1031B000050003D4C0F1FF3609F10105A5EB0900B4
:1031C0002BE0B9F1010F01DA4FF001090020B9F14C
:1031D000110F0090484601DD112300E003460AAAC2
:1031E00001A90CA8FFF7ADFEDDE90C704D460026E5
:1031F0008346207800070AD4AB4500DA5D4601A873
:10320000012D04DD411911F8011C302907D04F456B
:1032100002DA17F1040F04DA012082460FE06D1E76
:10322000EEE7002F02DCED1B3E4403E0781CA842D1
:1032300000DD7D1CB81B00F1010A4FF0004720782B
:10324000000703D4AA4501DB4FF0FF3A0021B7F194
:10325000004F0DF143088DF8431024D002202B239A
:10326000002F01DA7F422D230A21021EA0F1010066
:1032700000DC5FB197FBF1FC97FBF1F201FB1C7CDA
:1032800017460CF1300C08F801CDEEE7A8F101006B
:1032900003702188090501D5452100E06521A0F1D1
:1032A000010800F8011C09980FA9A1EB0807FF1DF0
:1032B00000B10120411901EBEA70A1693844081AF4
:1032C000401EA0612078C00602D42046FFF7EAFB2A
:1032D000099828B1D4E901219047206A401C206256
:1032E0002078C00622D52046FFF7DCFB1EE0002E2A
:1032F00004DBB34502DD01A8805D00E03020D4E9A5
:1033000001219047206A401C2062761CAAF101002E
:103310005FEA000A0AD100F03BF9C0680168405C2E
:10332000D4E901219047206A401C2062281EA5F1A3
:103330000105DCDC07E0D4E9012118F8010B904716
:10334000206A401C2062381EA7F10107F3DC2046EA
:10335000FFF7BEFB032011B043E6000001694A1CE1
:1033600002610878704700B58FB0CDE901310021C6
:10337000059105497944CDE9031011466846FFF7E8
:1033800067FC0FB000BD0000E5FFFFFF0A6802F810
:10339000010B0A60704710B5436913B1AFF30080A9
:1033A00001E0FFF7A6FB012010BD127800F1240117
:1033B0000A7000224A700122EDE711684FF0FF32D7
:1033C000E9E70000074B70B50D467B44FFF7CBFFE4
:1033D0000446284600F0EAF910B14FF0FF3070BD06
:1033E000204670BD5DD2FFFF2DE9FF5F15468A467E
:1033F0000446DFF8AC80F8440027D8E900103E46C8
:10340000CDE9001010E03AF816106A4602A800F064
:10341000D1F9411C07D02178890603D5E269391812
:1034200091420DD80744761C2078800602D5E069C9
:10343000B84205DDAE42E6DB3AF816000028E2D1DC
:10344000A069C01BA0612046FFF72CFBD8E9001043
:10345000CDE90010002017E03AF818106A4602A8DB
:1034600000F0A8F9B0F1FF3F81460BD000250DF127
:10347000080B05E0D4E901211BF8050090476D1CFD
:103480004D45F7D308F10100B0428046E4DB206AE5
:10349000384420622046FFF71BFBBDE8FF9F000079
:1034A000361300002DE9F0418046D21D22F00702BC
:1034B0000025D2E90002F52915A614D0011E72F1EB
:1034C000000106DA0023D0EB030063EB020211A631
:1034D00008E0D8F800108B0701D50FA602E04907D5
:1034E00001D50EA601251146002408F1240704E0A9
:1034F00000F052F830323A55641C50EA0102F7D11C
:103500002B46324621464046BDE8F041FFF7ABBCB2
:10351000000000002D0000002B0000002000000033
:1035200030B4002100F1240408E002F00705D208BD
:10353000303542EA4372DB086554491C52EA030500
:10354000F3D10468002310A2250707D5A40600D4F0
:1035500021B1C46901230DA2641EC46130BCFFF710
:1035600082BC10B5044621461068FFF773FC024682
:103570002046BDE810400023D2E7D21D22F007010B
:10358000D1E90023CCE7000000000000300000007B
:10359000004870477805002030B5B0F10A024FEAC4
:1035A000900E71F100034EEA817EB0EB0E0061EBEC
:1035B00091014FEA101E4EEA017E10EB0E0041EB26
:1035C00011114FEA102E4EEA016E10EB0E0041EB86
:1035D00011214FEA104E4EEA014E10EB0E0041EB66
:1035E0001141401841F100014FEAD00040EA41701A
:1035F0004FEAD10110EB80054FEA810444EA907450
:1036000044EB01046D1944EB0404521BA3414FF039
:10361000000348BF0A3200D530BD401C41F1000113
:1036200030BD00002DE9F0411F4604460326016825
:10363000072A01F4006004DB08B116A505E016A511
:1036400003E008B115A500E015A521F010002060E9
:10365000A069C01EA0610FB1401EA0612046FFF707
:1036600021FA4FB1D4E9012138469047206A401C25
:103670002062C01C206206E0206AFAE7D4E901213A
:1036800015F8010B9047761EF8D22046FFF720FA76
:10369000BDE8F0814E414E006E616E00494E46001D
:1036A000696E660010B5436913B1AFF3008001E0A5
:1036B000FFF79AFE012010BD128800F124018284D8
:1036C0000022C2840122EDE711684FF0FF32E9E7E2
:1036D0002DE9F047814616468AB0334878440DC834
:1036E0008DE80D0030487844801C03AC0DC884E898
:1036F0000D0041F69B300844372190FBF1F290FB1E
:10370000F1F5A5F1800501FB12041B3C02D56442D2
:10371000012000E00020DFF890A080460027FA4456
:10372000AAF1BE0A0DE0E00709D03246684607EB71
:1037300047010AEB810100F05EFB8DE80700641091
:103740007F1C002CEFD1184F7F44AC3F18E0E807F6
:1037500014D007EB04100DF1180A90E80E008AE867
:103760000E00C068F04201D198190890324606A9AF
:1037700003A800F040FB03AB83E807006D10641C56
:10378000002DE4D132466946B8F1000F03A802D0FB
:1037900000F01DFB01E000F02EFBC9E90001C9F8B3
:1037A00008200AB0BDE8F087D4100000007B00F0CC
:1037B0008000704770B516460C46054600F044F888
:1037C000036893F80101012806D0FF2C0FD8185D7B
:1037D00068B101202C7070BDD3F807013246214634
:1037E00003F2071303442846BDE8704018474FF022
:1037F000FF3070BD00487047580500207546FFF740
:10380000F9FFAE4605006946534620F0070085469D
:1038100018B020B5FCF740FDBDE820404FF0000691
:103820004FF000074FF000084FF0000B21F00701A8
:10383000AC46ACE8C009ACE8C009ACE8C009ACE8EB
:10384000C0098D467047000010B5FFF7A1FE001DAE
:1038500010BD00BF7108000010B50446AFF3008032
:103860002046BDE81040FCF7FEBC00004FF0013CD4
:1038700050F8042B51F8043B9A4221D1A2EB0C03DF
:10388000934313EACC1317D150F8042B51F8043B9F
:103890009A4215D1A2EB0C03934313EACC130BD13C
:1038A00050F8042B51F8043B9A4209D1A2EB0C03C7
:1038B000934313EACC13DBD04FF00000704700BFF6
:1038C000D01A01BAB1FA81F101F0180122FA01F01F
:1038D000CB40C1F12001DBB2C0B2C01A2CFA01F317
:1038E000D11A914311EAC311E6D170475FEA400C47
:1038F00008BF91F0000F4FEA8C234FEAC12243EA40
:1039000051514FEA1C5018BF00F5F0404FEA30000B
:1039100018BF41F000415FEA6C5C00F02980BCF107
:10392000FF3F08BF40F080407047130C06BF1204F1
:103930004FF0100C4FF0000C130E04BF12020CF1EC
:10394000080C130F04BF12010CF1040C930F04BFF9
:1039500092000CF1020CD30F04BF52000CF1010CC9
:1039600011464FF00002A0F11F00A0EB0C007047C1
:1039700011F0004F08BF704731F000413FF4D5AF60
:103980000B0C06BF09044FF0100C4FF0000C0B0E8F
:1039900004BF09020CF1080C0B0F04BF09010CF164
:1039A000040C8B0F04BF89000CF1020CCB0F04BF79
:1039B00049000CF1010CCCF12003A0EB0C0022FA21
:1039C00003F302FA0CF241EA030100F1010070472F
:1039D00020F07F4C80EA030023F07F47ACEB070325
:1039E00003F57C5300F0004003F1FF032DE980490B
:1039F0004FEA154B09B44FEA144325EA0B4E24EA6B
:103A000003480FF2042606EB132749083E785FEAC5
:103A1000320203FB0667C7F5000707FB06F64FEA0D
:103A200054374FEAD64606F1020607FB066CCCF186
:103A3000005C4FEA1C472CEA074C07FB06F40CFB22
:103A400006F504EB15464FEA961634BF00204FF0FA
:103A500000404FEAD13706FB07FC4FEA1C4C0CFB39
:103A60000BF7D21B03FB0CF761EB07010CFB0EF706
:103A7000B0EB074072EB17420CFB08F734BFA2EB28
:103A80000742B2EB074261EB17414FEA0C444FEAA1
:103A9000910706FB07FC4FEA1C4C0CFB0BF7B0EB45
:103AA000C74072EB573203FB0CF734BFA2EBC7429F
:103AB000B2EBC74261EB57310CFB0EF7B0EBC7001E
:103AC00072EB57720CFB08F734BFA2EBC702B2EBE4
:103AD000C70261EB5771039F4FEA816141EA92117E
:103AE00004EBCC044FEAD1374FEA826206FB07FCB5
:103AF00042EA90124FEA80604FEA1C4C0CFB0BF735
:103B0000D21B03FB0CF761EB07010CFB0EF7B0EBCC
:103B1000074072EB17420CFB08F734BFA2EB0742D9
:103B2000B2EB074261EB17414FEA8C554FEA910720
:103B300004EB9C2406FB07FC4FEA1C4C0CFB0BF728
:103B4000B0EBC74072EB573203FB0CF734BFA2EB6C
:103B5000C742B2EBC74261EB57310CFB0EF7B0EB3B
:103B6000C70072EB57720CFB08F734BFA2EBC70219
:103B7000B2EBC70261EB577115EB4C254FEA81613F
:103B800041EA92114FEA82624FEAD13742EA90123B
:103B900006FB07FC44F100044FEA80604FEA1C4C2E
:103BA0000CFB0BF7D21B03FB0CF761EB07010CFBC3
:103BB0000EF7B0EB074072EB17420CFB08F734BF6F
:103BC000A2EB0742B2EB074261EB174115EB1C1564
:103BD0004FEA813141EA92414FEA823242EA904211
:103BE0004FEA80304FEA0C7644F1000448EA034380
:103BF0004EEA0B484FF0000EB2EB080C71EB0307D6
:103C000024BF624639464EEB0E0E4FF0000B0018F3
:103C1000524149414BEB0B0BB2EB080C71EB030724
:103C20007BF1000B24BF624639464EEB0E0E4FF07F
:103C3000000B0018524149414BEB0B0BB2EB080C47
:103C400071EB03077BF1000B24BF624639464EEB54
:103C50000E0E51EA020718BF46F0010616EB0E766B
:103C600055F1000254F1000103D5BDE88901BDE81A
:103C70000088BDE88901BDE80048B619524141EB12
:103C80000101A3F10103704780807F7E7D7C7B7AF8
:103C90007978777676757473727171706F6E6E6DF8
:103CA0006C6C6B6A6A69686867666665646463639E
:103CB00062616160605F5F5E5E5D5D5C5C5B5B5A24
:103CC0005A59595858575756565555555454535391
:103CD00052525251515050504F4F4F4E4E4D4D4DEC
:103CE0004C4C4C4B4B4B4A4A4A4949494848484737
:103CF0004747474646464545454444444443434375
:103D00004342424242414141002B26D4770021D018
:103D10001CB54FEA370703B44FF010004FF0100105
:103D20004FF000000FBCBDE810400BF1010BBBF1E0
:103D3000010F08BF5FEA170722BF12F1010211F15C
:103D400001014FF0004143F1000300F0004043EA5D
:103D500000007047F9D35708DAE746EA064613F140
:103D6000400F4FEA16461FDD13F1200FDFBF164349
:103D70000A46002120335B42C8D0C3F1200746EA3F
:103D8000064602FA07F74FEA164646EA0706C3F167
:103D9000200722FA03F201FA07F721FA03F14FF0A4
:103DA000000342EA0702B1E746EA020646EA06468F
:103DB0004FEA164646EA0106BCBF46EA0646360CFE
:103DC0004FF000034FF000024FF000019EE72DE995
:103DD000C048934630B491E8380007C831EA400C37
:103DE00048BF34EA430C03D5FFF7F2FDFFF78CFF21
:103DF000F0BCBDE800882DE9C048934630B491E896
:103E0000380007C810F0804F08BF13F0804F03D16F
:103E100000F005F8FFF778FFF0BCBDE8008820F05F
:103E20007F4780EA030023F07F4C07EB0C03A3F5E8
:103E30007C5300F00040A3F1FE0392F0000F00F06D
:103E4000B38095F0000F00F077802DE901494FEA2B
:103E500011404FEA144621EA004800FB06FC24EA20
:103E6000064708FB06F607FB08F800FB07F718EB08
:103E700006484CEB164C4FEA124B18EB07484FEA3A
:103E800015464CEB174022EA0B4E0BFB06FC25EACD
:103E900006470EFB06F607FB0EFE0BFB07F71EEBB5
:103EA000064E4CEB164C4FF000061EEB074E4CEB4B
:103EB000174B18EB0B0840F1000018EB0E0B58EBFA
:103EC000000840F100008F1A4FF000013CBFC943C9
:103ED000661B14BFB5EB040C00213CBFC943F61BA5
:103EE0004FEA17444EEA8E0E27EA04454FEA1C4774
:103EF00004FB07622CEA074C05FB07F70CFB05F6F1
:103F000004FB0CFC16EB074642EB174216EB0C4683
:103F100042EB1C421BEB060658EB0202414146EA0B
:103F20009E0601D5BDE80189B619524141EB010158
:103F3000A3F10103BDE801894FEA14454FEA114797
:103F400024EA054621EA074C05FB07F406FB07F7C0
:103F50000CFB06F105FB0CFC11EB074144EB17448D
:103F60004FEA124711EB0C4144EB1C4422EA074C88
:103F700005FB07F206FB07F70CFB06F605FB0CFC3E
:103F800016EB074642EB174216EB0C4642EB1C457C
:103F90006A1854F1000148BF7047B619524141EB0D
:103FA0000101A3F10103704795F0000F37D04FEAEC
:103FB00011424FEA144721EA024624EA074C02FB69
:103FC00007F106FB07F70CFB06F402FB0CFC14EBF5
:103FD000074441EB17414FEA154714EB0C4441EB02
:103FE0001C4125EA074C02FB07F506FB07F70CFB13
:103FF00006F602FB0CFC16EB074645EB174516EBE5
:104000000C4645EB1C42121951F1000148BF7047A4
:10401000B619524141EB0101A3F1010370474FEA88
:1040200014454FEA114724EA054621EA074C05FBEF
:1040300007F106FB07F70CFB06F24FF0000605FB45
:104040000CFC12EB074241EB174112EB0C4251EB17
:104050001C4148BF7047921841EB0101A3F10103D5
:104060007047490050EAC12018BF04204A0D18BF0C
:1040700040F0010040F2FF72B2EB515F08BF40F028
:104080000200012808BF0520704730380A2801D2F5
:10409000012070470020704710B500290AD0087829
:1040A000002807D005487844FFF7E0FB002801D03E
:1040B000002010BD0248784410BD00001A0800001E
:1040C0001208000010B500290AD00878002807D08F
:1040D00005487844FFF7CAFB002801D0002010BD36
:1040E0000248784410BD00000A08000002080000E1
:1040F0000808A0F500114FEA3101704743004FEA6C
:10410000D30C4FEA3C0C43401FBF40070CF16051F9
:1041100013F0FE4F70471CF0006F03D100200CF02D
:10412000004170470CF0004343EA507010B540EA7C
:10413000CC0000F000FA00BF000000924FEA00013E
:10414000FFF7D6BF4FF000414FF00000A1F500216E
:104150007047000090EA010F48BF81F0004100F174
:104160004682421A3CBF801A89184FEAD0524FF05B
:104170007F4C1CEA410FA2EBD15318BF9CEA026F9F
:1041800000F03B804FF0004C4CEA00204CEA01214B
:1041900021FA03FC10EB0C0C1ED202F1FF325FEA95
:1041A0001C2040EBC25038BF70471CF07F0F4FEA15
:1041B000400C18BFBCF17F4F38BF7047C3F12003DC
:1041C000994008BF20F00100BCF17F4F38BF704715
:1041D000A0F1C04000F0F5B94FEA3C00000A40EB06
:1041E000C25028BF1CF0FF0F4FEA400CE6D018BFAA
:1041F000BCF17F4F38BF7047EAE79CEA026F05D0F9
:1042000010EA5C0F08BF00F00040704710B500F0E6
:1042100092F900BF64FBBE3E4FF47F0C1CEAD01243
:104220001EBF1CEAD11392EA0C0F93EA0C0F00F0A8
:10423000858090EA010F48BF42F4807240F4000C80
:1042400041F400002CF07F4120F07F4000B5814216
:10425000A2EB03020FF2081CACEB504EC0F10000C1
:104260009EF800E04FEA4E0E00FB0EFC38BF4900FE
:104270004FEA2C1C02F5FA020CFB0EF34FEACE1E9D
:104280004FEA112C4FEAC1210EEB635E42EB224252
:104290000EFB0CFC4FEA1C5300FB03114FEA112CE0
:1042A0004FEA01310EFB0CFC4FEADC4C00FB0C1119
:1042B000C14228BF09184CEB03335DF804EB10EB47
:1042C000410143EBC250B2F57C0F38BF704729D58E
:1042D00012F0F00F1CBF00F1C04000F0004070472A
:1042E000008182838485868788898B8C8D8E8F91CF
:1042F0009293959697999A9C9D9FA0A2A3A5A7A8F3
:10430000AAACAEB0B2B3B5B7B9BCBEC0C2C5C7C91E
:10431000CCCED1D4D7D9DCDFE2E6E9ECF0F3F7FA82
:10432000FE0000004FEA400C0CF1807CBCF17E4F97
:1043300028BF7047B0F1C04000F043B990EA010FC8
:104340000CEAD11348BF42F48072624538BF63451E
:1043500007D213F47F0F16D080EA010000F000406E
:10436000704710B500F0E7F8097EFC3E00F005B894
:1043700080EA010000F00040704780EA010000F090
:10438000004000F01EB912F47F0F04BF02487047CE
:1043900080EA010000F015B90000C07FC10DD1F125
:1043A0009E0206DB4FEA002343F0004323FA02F0AB
:1043B0007047004207D54FEA4001B1F1FE4F02D2EB
:1043C0004FF00000704710B500F0B5F84992248016
:1043D000002070476FEA20007047000010F0004195
:1043E00048BF4042B0FA80F310FA03F2C3F19D03D4
:1043F0000BD051EAC35101EB1220530638BF70476E
:1044000000F1010008BF20F001007047B0FA80F30E
:1044100010FA03F2C3F19D030AD0D90501EB122073
:10442000530638BF704700F1010008BF20F00100BB
:10443000704700004FF47F0C1CEAD0121EBF1CEA2C
:10444000D11392EA0C0F93EA0C0F00F0478090EA28
:10445000010F48BF42F480724FF0004C4CEA00203C
:104460004CEA012102EB0302A0FB0113A2F50002BA
:10447000002918BF43F001035B0028BF4FEA330354
:1044800042EB22425FEA132C4CEBC2502EBFBCEB36
:10449000436FB2F57C0F70474FEA036CBCF1004FDD
:1044A00008BF20F00100B2F57C0F38BF70470BD574
:1044B00082F0FF0212F5803FC8BF704700F1C04094
:1044C000D8BF00F00040704700F5000C5FEA4C0CCC
:1044D00048BF7047B0F1C04000F073B890EA010FD8
:1044E0000CEAD11348BF42F48072624538BF63457D
:1044F00004D280EA010000F00040704710B500F0DF
:104500001AF800BF8900013E00F007B800F009B8B2
:104510005FEA410C5FEA1C6C08D080EA010000F001
:1045200050B85FEA400C5FEA1C6CF6D14FF00040D7
:10453000A0F5800070470EF1020E2EF0030E5EF81B
:10454000044B244204D44FEA4102B2F17F4F11D808
:104550004FEA4003B3F17F4F0CD80ED14FEAD07C25
:10456000B2F17F4F0CEB4C0C0CF1020C08BF4CEB82
:10457000D17C04E04FF0080C01E04FEAD17C0CEB59
:104580004C0324FA03F404F00704B4F1040C06D23B
:104590000EEB840CBDE810404CF0010C6047DFE8E6
:1045A0000CF0070802024FF00040A0F5800010BD9B
:1045B0000846420018BFD2F1807288BF00F0004068
:1045C00010BDFF2141EAD050C005704780F0004087
:1045D00090EA010F7FF5C5AD81F0004100F007B80A
:1045E00090EA010F48BF81F000413FF5BAAD421A91
:1045F00004D882F00042A0EB020011444FEAD052EE
:104600004FF07F4C1CEA410FA2EBD15318BF9CEA3C
:10461000026F4AD04FF0004C4CEA00204CEA0121D6
:1046200021FA03FCB0EB0C0C0FD412F0FE0F36D0C5
:104630005FEA4C001DD5001240EBC25038BF7047F6
:104640001CF03F0F18BF70470BE0A2F101025FEAB8
:104650001C2040EBC25038BF70471CF07F0F18BFC2
:104660007047C3F12003994014BF401E20F00100A1
:10467000704780084FEA122308BF7047B0FA80FCE9
:10468000A2EB0C02CCF1280C60FA0CF093EA122F8A
:1046900004BF00EBC25070474FEAC3707047130A63
:1046A0005FEADC1008BF7047F6E79CEA026F04D0AF
:1046B00010EA5C0F08BF0020704710B5FFF73BFF02
:1046C00040DFF63E81F000407047FEF710BD00006D
:1046D000C012000080250000004B00000096000082
:1046E00000E1000000C20100008403000008070090
:1046F00000100E003031323334353637383941420C
:104700004344454640305800303132333435363733
:1047100038396162636465664030780004000008DF
:104720000000000000000002000100001000000076
:10473000000000000000000002400000000000A097
:104740000000000005400000000000C8000000005C
:104750000C4000000000409C0000000019400000D8
:104760000020BCBE0000000034400000BFC91B8E0A
:1047700000000004B5400000504BCFD06607E2CFE8
:10478000010000006C4100003E8251AADFEEA73418
:1047900001000000D9420000DCB5A0E23A301F97CA
:1047A000FFFFFFFFB4450000FD25A0C8E9A3C14FEE
:1047B000FFFFFFFFFF3F000000000080000000003F
:1047C000FF3F000000000080000000002032442075
:1047D0000000000020334420000000004661696CA6
:1047E000000000003F000000646563006964000091
:1047F00072756E74696D650068656C70000000000C
:104800006C69737400000000686578007538205387
:104810006B795472615F4366675F507274287533B9
:104820003220626175645F69642900007538205325
:104830006B795472615F4366675F547028753332D9
:104840002077696474682900766F696420777269DB
:1048500074655F61646472287533322061646472C8
:104860002C7533322076616C290000007538205396
:104870006B795472615F4366675F52617465287536
:104880003820467265702900753332207265616484
:104890005F61646472287533322061646472290038
:1048A000EC49000800000020580100002801000821
:1048B0004C4A000858010020600A000084010008EA
:1048C0001C00000043000000F8FFFFFF0C00000088
:1048D0000E0000000F0000002E000000100100007C
:1048E00043000000F8FFFFFF0040404040404040D0
:1048F00040404141414141404040404040404040B3
:104900004040404040404040400502020202020256
:1049100002020202020202020220202020202020A5
:1049200020202002020202020202909090909090B9
:104930001010101010101010101010101010101077
:1049400010101010020202020202888888888888EB
:1049500008080808080808080808080808080808D7
:1049600008080808020202024000000000000000DF
:104970000000000000000000000000000000000037
:104980000000000000000000000000000000000027
:104990000000000000000000000000000000000017
:1049A0000000000000000000000000000000000007
:1049B00000000000000000000000000000000000F7
:1049C00000000000000000000000000000000000E7
:1049D00000000000000000000000000000000000D7
:1049E000000000000000000000000000C113DC47D0
:1049F0002A08041ACC041AD40432011AE4081AF85A
:104A0000041112481B08EC081A08081AE8081AF0E2
:104A1000041337241B0888101A3D081A4808135934
:104A2000171B080C081AB1081A2C08132F181B089A
:104A30006C08223C1420891F1B08AD041357201456
:0C4A400008BF23230805295F01D90000EE
:04000005080000ED02
:00000001FF
