:020000040800F2
:100000003004002001010008991300089B13000828
:100010009F130008A3130008A713000800000000A6
:10002000000000000000000000000000AB1300080A
:10003000AD13000800000000AF130008B113000862
:100040001B0100081B0100081B0100081B01000820
:100050001B0100081B0100081B0100081B01000810
:100060001B0100081B0100081B0100081B01000800
:100070001B0100081B0100081B0100081B010008F0
:100080001B0100081B0100081B0100081B010008E0
:100090001B0100081B0100081B0100081B010008D0
:1000A0001B0100081B0100081B0100081B010008C0
:1000B0001B0100081B0100081B0100081B010008B0
:1000C0001B0100081B0100081B0100081B010008A0
:1000D0001B0100081B0100081B0100081B01000890
:1000E0001B0100081B0100081B010008DFF80CD0F1
:1000F00001F0C8FC00480047ED1200083004002061
:100100000648804706480047FEE7FEE7FEE7FEE7B1
:10011000FEE7FEE7FEE7FEE7FEE7FEE70302000874
:10012000ED0000080CB50020019000906C480068BC
:1001300040F480306A49086000BF6948006800F4F4
:10014000003000900198401C0190009818B9019867
:10015000B0F5A06FF1D16248006800F4003010B132
:100160000120009001E0002000900098012843D178
:100170005C48006840F010005A4908600846006872
:1001800020F0030008600846006840F002000860A4
:1001900053484068524948600846406848600846ED
:1001A000406840F4806048600846406820F47C1055
:1001B00048600846406840F4E81048600846006817
:1001C00040F08070086000BF4548006800F0007093
:1001D0000028F9D04248406820F0030040494860B8
:1001E0000846406840F00200486000BF3C48406854
:1001F00000F00C000828F9D10CBD10B5FFF792FFF4
:1002000010BD10B53648006840F001003449086060
:10021000084640683449084031494860084600684B
:10022000324908402E4908600846006820F48020C2
:1002300008600846406820F4FE0048604FF41F0044
:100240008860FFF7DAFF4FF000602949086010BDB1
:1002500010B5002100200022214B5B6803F00C0147
:1002600021B1042906D0082928D107E0214B224CCE
:10027000236027E01F4B204C236023E0184B5B6872
:1002800003F47010164B5B6803F48032022303EB17
:10029000904022B9194B4343174C23600DE0104B9B
:1002A0005B6803F4003323B1144B4343124C2360C7
:1002B00003E0104B4343104C236003E00D4B0E4C06
:1002C000236000BF00BF064B5B68C3F303130C4CF5
:1002D000E15C094B1B68CB40074C236010BD00005C
:1002E00000100240002002400000FFF8FFFFF6FE71
:1002F00008ED00E000127A000000002000093D0037
:100300000400002031490143314A1160704770B543
:10031000002100230F22C47804B32D4C246804F478
:10032000E064C4F5E064210AC1F10403CA404478E2
:1003300004FA03F18478144021430901254C06781E
:10034000A155047804F01F050124AC4005786D1117
:10035000AD0005F1E025C5F8004109E0047804F09E
:100360001F050124AC401C4D0678761145F8264047
:1003700070BD1A4A0A400243154B1B1F1A60704792
:1003800039B1134A121D12680243114B1B1D1A602A
:1003900006E00F4A121D126882430D4B1B1D1A60A6
:1003A0007047042808D14FF0E021096941F00401A9
:1003B0004FF0E022116107E04FF0E021096921F0E0
:1003C00004014FF0E0221161704700000000FA05BF
:1003D0000CED00E000E400E080E100E080FFFF1FA2
:1003E00010B50446CC48844208D10121042000F015
:1003F0002FFD0021042000F02BFD46E0C748844279
:1004000008D10121082000F023FD0021082000F080
:100410001FFD3AE0C248844208D10121102000F0BB
:1004200017FD0021102000F013FD2EE0BD4884428E
:1004300008D10121202000F00BFD0021202000F038
:1004400007FD22E0B848844208D10121402000F095
:10045000FFFC0021402000F0FBFC16E0B348844282
:1004600008D10121802000F0F3FC0021802000F061
:10047000EFFC0AE0AE48844207D10121801500F06C
:10048000E7FC0021A01500F0E3FC10BD10B5012130
:10049000084600F0DDFC0021012000F0D9FC10BD71
:1004A0002DE9F0410246002500260020002300240B
:1004B000002791F803C00CF00F0591F803C00CF071
:1004C000100CBCF1000F03D091F802C04CEA0505F6
:1004D00091F800C0BCF1000F31D0146800202BE06F
:1004E0004FF0010C0CFA00F3B1F800C00CEA03065F
:1004F0009E4220D183004FF00F0C0CFA03F7BC434F
:1005000005FA03FC4CEA040491F803C0BCF1280F7F
:1005100006D14FF0010C0CFA00FCC2F814C00AE03E
:1005200091F803C0BCF1480F05D14FF0010C0CFA53
:1005300000FCC2F810C0401C0828D1D31460B1F8E8
:1005400000C0BCF1FF0F34DD546800202EE000F144
:10055000080C4FF0010808FA0CF3B1F800C00CEADF
:1005600003069E4221D183004FF00F0C0CFA03F7D3
:10057000BC4305FA03FC4CEA040491F803C0BCF147
:10058000280F05D100F1080C08FA0CF8C2F8148005
:1005900091F803C0BCF1480F07D100F1080C4FF0EF
:1005A000010808FA0CF8C2F81080401C0828CED3C5
:1005B0005460BDE8F0814FF6FF7101800221817027
:1005C0000421C17070470246002093680B400BB1B4
:1005D000012000E0002070470146886880B2704723
:1005E00002460020D3680B400BB1012000E0002040
:1005F00070470146C86880B2704701617047416129
:1006000070470AB1016100E041617047C160704705
:100610004FF480320A43826181618261826982691A
:10062000704702460020434B18684FF6807318400D
:1006300040EA021008433F4B186070473E49C861CA
:100640007047F0B50A46002300240021002500F081
:100650000046B6F1004F02D1364EF16901E0354E49
:100660007168C0F3034583B200F44016B6F5401F2D
:1006700008D121F070612F4E766826F070662D4FFC
:100680007E6012E000F48016B6F5801F06D10326C6
:1006900006FA05F4A14341F0706106E0460D36010B
:1006A00003FA06F6B14341F0706122B1460D3601FE
:1006B00003FA06F6314300F00046B6F1004F02D1CE
:1006C0001C4EF16101E01B4E7160F0BD30B500229F
:1006D0008B071C0F0F2303FA04F2164B08338C1000
:1006E00053F824309343134C08348D1044F82530CC
:1006F00023468C1053F824308C07240F00FA04F49E
:1007000023430C4C08348D1044F8253030BD0A4981
:10071000DC3108607047000000080140000C014017
:10072000001001400014014000180140001C01406D
:1007300000200140000001400000204210B50446A6
:10074000F748844209D10121480500F08EFB0021C1
:100750004FF4001000F089FB08E00121880500F04B
:1007600084FB00214FF4800000F07FFB10BD2DE9D9
:10077000F04385B004460D460026B1460427DFF855
:10078000A483A6884FF6C0700640684600F0D9FAE8
:10079000DDF80880E448B8FBF0F01FFA80F946EA7B
:1007A0000906A68020884FF6FE71084020800026AA
:1007B000DE49286888420CD828684000B8FBF0F071
:1007C00087B2042F00DA04273E4309F10100208498
:1007D00027E0E8884BF6FF71884206D1286800EBD5
:1007E0004000B8FBF0F087B209E0286800EBC001D8
:1007F00001EB0010B8FBF0F087B247F48047C7F375
:100800000B0008B947F0010747F4004006434FF4D6
:10081000967009FB00F04FF47A7190FBF1F0401CE8
:100820002084A683208840F00100208026884FF68F
:10083000F5300640A8886989084306432680A889C0
:1008400029890843208105B0BDE8F08341F2883151
:100850000160002181804BF6FF71C1800021018180
:1008600041814FF480418181704721B1028842F07B
:100870000102028004E002884FF6FE731A400280F3
:10088000704721B1828842F40062828004E082884D
:100890004FF2FF731A408280704721B1828842F480
:1008A0008052828004E082884EF6FF731A40828074
:1008B000704721B1028842F48072028004E002880D
:1008C0004FF6FF631A400280704721B1028842F45C
:1008D0000072028004E002884FF6FF531A40028043
:1008E000704721B1028842F48062028004E00288ED
:1008F0004FF6FF331A40028070470A460021818973
:100900004FF60173194002F0FE03194381817047CD
:1009100021B1828942F00102828104E082894FF68E
:10092000FE731A408281704721B1028842F0400272
:10093000028004E002884FF6BF731A4002807047BD
:100940001AB183880B43838002E083888B438380C2
:100950007047018270470146088AC0B2704712B1E1
:1009600041F0010102E04FF6FE7319400182704729
:1009700008B50246002000900092009808440090BC
:100980000098008808BD21B1028842F4004202802C
:1009900003E00288C2F30E0202807047B1F5006FD7
:1009A00004D1028842F40062028004E002884FF21F
:1009B000FF731A4002807047B1F5005F04D10288CE
:1009C00042F40052028004E002884DF6FF731A40A0
:1009D0000280704721B1028842F48052028004E014
:1009E00002884EF6FF731A4002807047B1F5006F1F
:1009F00004D1028842F40062028004E002884FF2CF
:100A0000FF731A400280704721B1028842F0200231
:100A1000028004E002884FF6DF731A4002807047BC
:100A20000146088B0012704721B1028842F0100283
:100A3000028004E002884FF6EF731A40028070478C
:100A400021B9028842F08002028004E002884FF659
:100A50007F731A4002807047B1F5804F05D0828BBA
:100A60004BF6FF731A40828303E0828B42F480428C
:100A70008283704770B502460024002500230020C1
:100A8000958A138B1B0445EA030626F07F4404EA8B
:100A900001068E4201D1012000E0002070BD10B59A
:100AA00001460020002300228B8A0A8B120443EAAD
:100AB000020424F07F4010BD0CB502460020002344
:100AC0000193009300920B0F019321F07F41019B52
:100AD0001BB1009B1433009303E0090C009B1833F7
:100AE0000093009B1B680B400BB1012000E000202D
:100AF0000CBD002221F07F42D3438382704730B582
:100B0000024600200023948801F0E06504EA1543C2
:100B100021F07F41948A0C4054B14BB1012008E090
:100B20000054004000127A0040420F00A0860100ED
:100B3000002030BD002221F07F42D34383827047E2
:100B4000DF48006840F00100DD4908600846406861
:100B5000DC490840DA49486008460068DA4908403C
:100B6000D74908600846006820F4802008600846DD
:100B7000406820F4FE0048604FF41F008860704712
:100B8000CF49096821F48031CD4A116011460968C6
:100B900021F480211160B0F5803F03D0B0F5802FA3
:100BA0000ED106E0C649096841F48031C44A11609B
:100BB00007E0C349096841F4A021C14A116000E07F
:100BC00000BF00BF704710B501460022002300207F
:100BD0004A11012A02D1BA4C236806E0022A02D146
:100BE000B74C236A01E0B64C636A01F01F0201248E
:100BF00094401C400CB1012000E0002010BD38B52D
:100C0000002000900024002500BF3120FFF7DBFF0B
:100C100005460098401C00900098B0F5A06F01D0E8
:100C2000002DF2D03120FFF7CEFF08B1012400E003
:100C30000024204638BD01460020A14A106820F05B
:100C4000F80040EAC10010607047A0490860704792
:100C5000024600209A4B586820F47C1042EA0103B7
:100C60001843974B5860704798490866704701468B
:100C70000020934A506820F00300084350607047FA
:100C80008F48406800F00C007047014600208C4AF5
:100C9000506820F0F0000843506070470146002083
:100CA000874A506820F4E06008435060704701466E
:100CB0000020834A506820F4605040EAC100506030
:100CC000704729B17E4A527A02437D4B5A7204E042
:100CD0007B4A527A82437A4B5A7270477B49D831A9
:100CE0000860704701460020754A506820F4404073
:100CF0000843506070470021714A20321170704AD9
:100D000082F82010012802D004280AD104E0012131
:100D10006B4A2032117005E00521694A20321170BA
:100D200000E000BF00BF7047694908607047644930
:100D3000096A0143624A1162704765494439086093
:100D4000704730B500210022002400235C4D6D68FF
:100D500005F00C0121B1042905D0082923D105E0B3
:100D60005C4D056022E05B4D05601FE0544D6D68F1
:100D700005F47012524D6D6805F48034022505EBC0
:100D800092421CB9544D554305600BE04C4D6D68C3
:100D900005F400351DB1504D5543056002E04D4D41
:100DA0005543056002E04B4D056000BF00BF444D58
:100DB0006D6805F0F0010909484D6B5C0568DD4080
:100DC00045603F4D6D6805F4E061090A434D6B5C79
:100DD0004568DD4085603A4D6D6805F46051C90A8B
:100DE0003E4D6B5C4568DD40C560354D6D6805F472
:100DF0004041890B3A4D6B5CC568B5FBF3F5056165
:100E000030BD29B12E4A526902432D4B5A6104E08C
:100E10002B4A526982432A4B5A61704729B1284AAA
:100E200092690243264B9A6104E0254A9269824303
:100E3000234B9A61704729B1214AD2690243204B62
:100E4000DA6104E01E4AD26982431D4BDA617047C1
:100E500029B11B4AD2680243194BDA6004E0184AF0
:100E6000D2688243164BDA60704729B1144A12697E
:100E70000243134B1A6104E0114A12698243104B7A
:100E80001A61704712494039086070470F49C864B9
:100E900070470B49C87170470948406A40F080703C
:100EA00007494862704701460020054A92680A4097
:100EB0000AB1012000E000207047014988727047A4
:100EC000001002400000FFF8FFFFF6FE0000424263
:100ED0008004424200127A0000093D001400002004
:100EE0002400002010B50446FB48844209D10121AA
:100EF0008803FFF7ADFF00214FF48040FFF7A8FF04
:100F000032E0F648844209D101214804FFF7ADFFE1
:100F100000214FF40030FFF7A8FF25E0F04884429D
:100F200009D101218804FFF7A0FF00214FF48020A0
:100F3000FFF79BFF18E0EB48844209D10121C80468
:100F4000FFF793FF00214FF40020FFF78EFF0BE027
:100F5000E548844208D101210805FFF786FF0021FA
:100F60004FF48010FFF781FF10BD2DE9F04786B0E8
:100F700005460E460024A24600BFA1460027B089C0
:100F800000B100BF2F462C8A4CF6FF700440F08859
:100F900004432C82AC894EF6F3100440B0883189AA
:100FA0000843718908430443AC81AC8A4FF6FF4083
:100FB0000440B0890443AC8201A8FFF7C2FEC648D2
:100FC000874202D1DDF810A001E0DDF80CA0A8896D
:100FD00000F4004040B10AEBCA0000EB0A1031688F
:100FE0004900B0FBF1F807E00AEBCA0000EB0A1079
:100FF00031688900B0FBF1F86420B8FBF0F004011F
:101000002009642101FB1089A88900F4004040B147
:10101000322000EBC900B0FBF1F000F00700044300
:1010200008E0322000EB09106421B0FBF1F000F081
:101030000F0004432C8106B0BDE8F0874FF4165131
:10104000016000218180C18001810C21418100214A
:101050008181704710B502460020108A4FF2FF03CD
:1010600018400B884C8823438C882343CC88234327
:101070001843108210BD0021018041808180C18011
:10108000704721B1828942F40052828104E0828952
:101090004DF6FF731A4082817047F0B50346002475
:1010A00000260025002040F66A17B94200D100BF93
:1010B0001846C1F3421401F01F06012707FA06F58E
:1010C000012C01D10C3004E0022C01D1103000E0E1
:1010D00014301AB107682F43076002E00768AF4376
:1010E0000760F0BD1AB1838A0B43838202E0838AD2
:1010F0008B4383827047028A4FF6F0731A40028254
:10110000028A0A430282704782894FF2FF731A40B3
:10111000828182890A438281704721B1828942F0AB
:101120000202828104E082894FF6FD731A408281B7
:101130007047028A4FF6DF731A400282028A0A431E
:101140000282704721B1028A42F48042028204E0A6
:10115000028A4BF6FF731A4002827047C1F30802FD
:101160008280704701468888C0F3080070478189F3
:1011700041F0010181817047028BD2B20283028B60
:1011800042EA012202837047028B02F47F4202830B
:10119000028B0A430283704721B1828A42F0200207
:1011A000828204E0828A4FF6DF731A40828270479F
:1011B00021B1828A42F01002828204E0828A4FF6D4
:1011C000EF731A408282704721B1828A42F008028E
:1011D000828204E0828A4FF6F7731A408282704757
:1011E00021B1828942F40042828103E08289C2F304
:1011F0000E028281704721B1828A42F400628282AB
:1012000004E0828A4FF2FF731A4082827047828A1A
:101210004FF6FB731A408282828A0A4382827047A9
:1012200021B1828A42F00202828204E0828A4FF671
:10123000FD731A408282704702460020B1F5007F9C
:1012400000D100BF13880B400BB1012000E000204B
:10125000704701F40072B2F5007F00D100BFCA43AD
:101260000280704770B5024600240023002500204C
:1012700040F66A16B14200D100BFC1F3421501F039
:101280001F03012606FA03F3012D02D1968933408C
:1012900006E0022D02D1168A334001E0968A3340DF
:1012A0000C12012606FA04F41688344013B10CB16E
:1012B000012000E0002070BD10B50022002340F6A0
:1012C0006A14A14200D100BF0A1201249440A3B2C3
:1012D000DC43048010BD00000038014000440040A1
:1012E00000480040004C00400050004000BF00F0AB
:1012F000BFF800F046FB00F0FDFAA02000F0BDFAB8
:1013000031E0032000F048FA002117A000F08BF92B
:1013100003E042F2107000F054F800F02AF94F2870
:10132000F7D1032000F038FA00210FA000F07BF97C
:1013300003E042F2107000F044F800F01AF94F2870
:10134000F7D1022000F00AFA352000F025FA00213A
:101350000F4800F068F902E00E4800F032F800F0A3
:1013600008F94F28F8D1CCE7C4E3BAC3C7EBD4DA05
:10137000C9E3CFF1CDB7CFC2B3F6CABEBDA1BFB5E9
:10138000C2EBB2A2B2E2C1BFCCE5CEC20000000007
:10139000B41C0008A0860100704700BFFEE700BF34
:1013A000FEE700BFFEE700BFFEE7704770477047EB
:1013B0007047000000BF011EA0F10102D0B2FAD1B7
:1013C000704770B504460025002600BF09E00026DE
:1013D00003E07820FFF7EEFF761CA642F9D3681CE5
:1013E000C5B2052DF3DB70BD08B501214805FFF737
:1013F00022FD01210820FFF711FD4020ADF800007B
:1014000003208DF802001C208DF803006946F9487E
:10141000FFF746F88020ADF8000003208DF80200A9
:101420001C208DF803006946F248FFF739F808BD23
:101430001FB5F148FFF782F90020ADF804004BF624
:10144000FF70ADF806000A20ADF808004FF4806088
:10145000ADF80A000001ADF80C00E84800906946BC
:10146000E548FFF784F90121E348FFF7FEF91FBDC6
:1014700010B5FFF7B9FFFFF7DBFF10BD0020704785
:1014800010B504464FF48050DD49086008E0DC499F
:101490000868411EDA4A116010B9FFF7EFFF10BD6E
:1014A0004FF40031D448FFF707FB0028EFD10121AA
:1014B000D148FFF7FEF94FF48050D149086008E0A9
:1014C000CF490868411ECE4A116010B9FFF7D6FF18
:1014D000E5E7CC49C848FFF7CDFA0028F0D0002254
:1014E0006021C548FFF73BFA4FF48050C4490860BB
:1014F00008E0C3490868411EC14A116010B9FFF7EE
:10150000BDFFCCE7C049BC48FFF7B4FA0028F0D0D3
:101510002146B948FFF71DFA4FF48050B8490860DA
:1015200008E0B7490868411EB54A116010B9FFF7D5
:10153000A5FFB4E7B449891CAF48FFF79BFA002820
:10154000EFD0C820FFF73DFF0121AB48FFF7BDF901
:10155000C820FFF736FF0120A1E770B505460E460B
:10156000002403E0285DFFF78BFF641CB442F9DB25
:1015700070BD38B50124FF25A4A0006800900421A7
:101580006846FFF7EAFF4FF4AF70FFF71AFF01213B
:101590009948FFF78EF920039949086008E09849B7
:1015A0000868411E964A116010B9FFF767FF38BD01
:1015B00094499148FFF75EFA0028F0D0012260219B
:1015C0008D48FFF7CCF94FF480508D49086008E052
:1015D0008B490868411E8A4A116010B9FFF74EFF17
:1015E000E5E78849491C8448FFF744FA0028EFD012
:1015F00015E0012C07D100217F48FFF772F9012186
:101600007D48FFF762F97F493F317B48FFF732FAA7
:1016100028B17948FFF79FF90546601E84B2002C77
:10162000E7D12846C3E7FEB504460D46204600F044
:101630000BFA801C86B2FD208DF8000030128DF868
:101640000100F0B28DF8020001208DF803008DF842
:10165000045002949DF80000FFF712FF9DF801006E
:10166000FFF70EFF9DF80200FFF70AFF9DF8030049
:10167000FFF706FF9DF80400FFF702FF029800F055
:10168000E3F9074639460298FFF767FFFEBDFEB54E
:101690000446204600F0D8F9801C85B2FD208DF864
:1016A000000028128DF80100E8B28DF80200012038
:1016B0008DF8030000208DF8040002949DF80000CE
:1016C000FFF7DEFE9DF80100FFF7DAFE9DF802004D
:1016D000FFF7D6FE9DF80300FFF7D2FE9DF8040049
:1016E000FFF7CEFE029800F0AFF9064631460298A9
:1016F000FFF733FFFEBD3EB505460C46601C30B11A
:1017000023462A4642A1684600F0CEF904E02A4664
:1017100041A1684600F0C8F96846FFF7B8FF3EBD32
:1017200010B5044621466620FFF7E5FF02E00A20D7
:10173000FFF747FEFFF71DFF4F28F8D110BD10B58A
:10174000044621466720FFF7D6FF02E00A20FFF794
:1017500038FEFFF70EFF4F28F8D110BD10B5044634
:1017600021466820FFF7C7FF02E00A20FFF729FEA5
:10177000FFF7FFFE4F28F8D110BD10B504462146F3
:101780006920FFF7B8FF02E00A20FFF71AFEFFF713
:10179000F0FE4F28F8D110BD10B5044621466D204B
:1017A000FFF7A9FF02E00A20FFF70BFEFFF7E1FEBB
:1017B0004F28F8D110BD10B5044621466E20FFF722
:1017C0009AFF02E00A20FFF7FCFDFFF7D2FE4F2848
:1017D000F8D110BD10B5044621466F20FFF78BFFEE
:1017E00002E00A20FFF7EDFDFFF7C3FE4F28F8D116
:1017F00010BD0000000C014000540040A086010014
:10180000280000200100030082000700FD000121E4
:101810005B256325645D00005B25635D00000000BF
:1018200010B5044621467220FFF765FF02E00A204A
:10183000FFF7C7FDFFF79DFE4F28F8D110BD10B58B
:10184000044621467320FFF756FF02E00A20FFF707
:10185000B8FDFFF78EFE4F28F8D110BD10B5044635
:1018600021467420FFF747FF02E00A20FFF7A9FD99
:10187000FFF77FFE4F28F8D110BD10B50446214672
:101880007620FFF738FF02E00A20FFF79AFDFFF706
:1018900070FE4F28F8D110BD10B5044621467920BE
:1018A000FFF729FF02E00A20FFF78BFDFFF761FE3B
:1018B0004F28F8D110BD10B5044621467A20FFF715
:1018C0001AFF02E00A20FFF77CFDFFF752FE4F28C7
:1018D000F8D110BD10B54FF0FF316420FFF70BFFBA
:1018E00002E00A20FFF76DFDFFF743FE4F28F8D115
:1018F00010BD000010B586B001218803FFF78EFAF5
:1019000001210520FFF78AFA4FF40070ADF81400AA
:1019100018208DF8170003208DF8160005A94848F7
:10192000FEF7BEFD4FF48060ADF8140004208DF882
:10193000170005A94248FEF7B3FD424C4FF4E130D1
:1019400001900020ADF80800ADF80A00ADF80C00D9
:10195000ADF810000C20ADF80E0001A92046FFF7ED
:1019600004FB012240F225512046FFF796FB01219E
:101970002046FFF786FB40212046FFF76AFC06B0B1
:1019800010BD08B54FF4E060FEF7BCFC25208DF8D3
:10199000000000208DF8010001208DF802008DF874
:1019A00003006846FEF7B3FC08BD70B504460D465B
:1019B00029462046FFF7D2FB00BF80212046FFF7D3
:1019C0003BFC0028F9D070BD2DE9F04107460D46DB
:1019D0001646002400BF295D3846FFF7E6FF641C69
:1019E000B442F8D3BDE8F08170B506460C46002538
:1019F00000BF615D3046FFF7D8FF6D1C605D0028B9
:101A0000F7D170BD70B504460D46E1B20D48FFF741
:101A1000A5FB00BF80210B48FFF70EFC0028F9D082
:101A2000204670BD10B5044600BF20210548FFF7D1
:101A300003FC0028F9D00348FFF794FB10BD000019
:101A40000008014000380140421C10F8011B002929
:101A5000FBD1801A704730B50B460146002020228A
:101A6000012409E021FA02F59D4205D303FA02F5AB
:101A7000491B04FA02F52844151EA2F10102F1DC0B
:101A800030BD0000064C074D06E0E06840F0010361
:101A900094E8070098471034AC42F6D3FEF72AFBCF
:101AA000041D0008241D00080FB4084B10B504A93C
:101AB00002AA039800F01CF8044602A9002000F0D6
:101AC000F3F8204610BC5DF814FB0000A91C0008C8
:101AD00002E008C8121F08C1002AFAD170477047F7
:101AE000002001E001C1121F002AFBD17047000055
:101AF0002DE9FF4F8BB09A460F460546002606E0BB
:101B000025280BD052460D9990476D1C761C2878DD
:101B10000028F5D10FB03046BDE8F08F0024A04674
:101B20000122604900E0044315F8013F203B02FA1E
:101B300003F00842F7D128782E2817D115F8010FA5
:101B400044F004042A280ED06FF02F022878A0F168
:101B5000300109290AD808EB880102EB410100EBAA
:101B600001086D1CF2E757F8048B6D1C2878692872
:101B70003ED006DC0028CDD063280BD0642804D1E9
:101B800036E0732810D075284BD052460D999047F7
:101B9000761C85E017F8040B8DF8000000208DF806
:101BA0000100E946012003E057F8049B4FF0FF30A5
:101BB00061074FF0000401D40AE0641C44450DDACB
:101BC0008442FADB19F804100029F6D106E0641CFF
:101BD0008442FCDB19F804100029F8D1264404E003
:101BE00019F8010B52460D999047641EF8D257E040
:101BF00001CF4FF00A0B002802DA40422D2102E00B
:101C0000210504D52B218DF82410012103E0E107E3
:101C100005D02021F7E70DF1200908910CE0002103
:101C2000F9E701CF4FF00A0BF9E75946FFF713FF29
:101C300001F1300209F8012D0028F6D1ADEB0900C1
:101C400000F1200B600701D44FF00108D84502DDF8
:101C5000A8EB0B0000E000208046002406E009A865
:101C60005246005D0D999047641C761C089884428A
:101C7000F5DB04E0302052460D999047761CB8F110
:101C80000001A8F10108F5DC05E019F8010B524646
:101C90000D999047761CBBF10001ABF1010BF4DC10
:101CA0006D1C34E7092801000A68531C0B60107092
:101CB0007047000068656C6C6F2C20706C656173F8
:101CC000652073686F7720796F7572206865616C25
:101CD000746820636F646520756E64657220746833
:101CE000652063616D65726120616E642074616B53
:101CF0006520796F75722074656D70657261747599
:101D000072650000241D0008000000202C00000067
:101D1000D01A0008501D00082C0000200404000008
:101D2000E01A000800A24A040000000000000000C1
:101D30000102030406070809000000000102030471
:101D400001020304060708090204060800A00000B7
:04000005080000ED02
:00000001FF
